{
    "contractName": "Will_maker",
    "abi": [
        {
            "constant": false,
            "inputs": [
                {
                    "name": "_owner",
                    "type": "address"
                }
            ],
            "name": "claim_money",
            "outputs": [],
            "payable": true,
            "stateMutability": "payable",
            "type": "function"
        },
        {
            "constant": true,
            "inputs": [
                {
                    "name": "_owner",
                    "type": "address"
                }
            ],
            "name": "get_inheritance",
            "outputs": [
                {
                    "name": "_amount",
                    "type": "uint256"
                }
            ],
            "payable": false,
            "stateMutability": "view",
            "type": "function"
        },
        {
            "constant": false,
            "inputs": [],
            "name": "still_alive",
            "outputs": [],
            "payable": true,
            "stateMutability": "payable",
            "type": "function"
        },
        {
            "constant": false,
            "inputs": [
                {
                    "name": "_owner",
                    "type": "address"
                }
            ],
            "name": "execute",
            "outputs": [
                {
                    "name": "",
                    "type": "uint256"
                }
            ],
            "payable": true,
            "stateMutability": "payable",
            "type": "function"
        },
        {
            "constant": true,
            "inputs": [],
            "name": "get_beneficiaries",
            "outputs": [
                {
                    "name": "",
                    "type": "address[]"
                }
            ],
            "payable": false,
            "stateMutability": "view",
            "type": "function"
        },
        {
            "constant": true,
            "inputs": [
                {
                    "name": "",
                    "type": "address"
                }
            ],
            "name": "wills",
            "outputs": [
                {
                    "name": "executor",
                    "type": "address"
                },
                {
                    "name": "secret",
                    "type": "bytes32"
                },
                {
                    "name": "count",
                    "type": "uint256"
                },
                {
                    "name": "expiry",
                    "type": "uint256"
                }
            ],
            "payable": false,
            "stateMutability": "view",
            "type": "function"
        },
        {
            "constant": false,
            "inputs": [
                {
                    "name": "_owner",
                    "type": "address"
                },
                {
                    "name": "_pass",
                    "type": "uint256"
                }
            ],
            "name": "claim_money_pass",
            "outputs": [],
            "payable": true,
            "stateMutability": "payable",
            "type": "function"
        },
        {
            "constant": false,
            "inputs": [
                {
                    "name": "_benes",
                    "type": "address[]"
                },
                {
                    "name": "_values",
                    "type": "uint256[]"
                }
            ],
            "name": "add_beneficiaries",
            "outputs": [],
            "payable": true,
            "stateMutability": "payable",
            "type": "function"
        },
        {
            "constant": false,
            "inputs": [
                {
                    "name": "_exe",
                    "type": "address"
                },
                {
                    "name": "_beneficiaries",
                    "type": "address[]"
                },
                {
                    "name": "_values",
                    "type": "uint256[]"
                },
                {
                    "name": "_sec",
                    "type": "bytes32"
                }
            ],
            "name": "create_will",
            "outputs": [],
            "payable": true,
            "stateMutability": "payable",
            "type": "function"
        },
        {
            "constant": true,
            "inputs": [],
            "name": "deployed",
            "outputs": [
                {
                    "name": "",
                    "type": "uint256"
                }
            ],
            "payable": false,
            "stateMutability": "view",
            "type": "function"
        },
        {
            "constant": true,
            "inputs": [
                {
                    "name": "ran",
                    "type": "uint256"
                }
            ],
            "name": "gethash",
            "outputs": [
                {
                    "name": "",
                    "type": "bytes32"
                }
            ],
            "payable": false,
            "stateMutability": "pure",
            "type": "function"
        },
        {
            "inputs": [],
            "payable": true,
            "stateMutability": "payable",
            "type": "constructor"
        },
        {
            "payable": true,
            "stateMutability": "payable",
            "type": "fallback"
        },
        {
            "anonymous": false,
            "inputs": [
                {
                    "indexed": false,
                    "name": "_owner",
                    "type": "address"
                },
                {
                    "indexed": false,
                    "name": "_bene",
                    "type": "address[]"
                },
                {
                    "indexed": false,
                    "name": "_values",
                    "type": "uint256[]"
                }
            ],
            "name": "created_will",
            "type": "event"
        }
    ],
    "bytecode": "60806040526001600055610d4a806100186000396000f3006080604052600436106100ae5763ffffffff7c01000000000000000000000000000000000000000000000000000000006000350416632d0b3f6c81146100b05780633adb6a2a146100c45780633d58225a146100f75780634b64e492146100ff5780636596530814610113578063a4cb92fa14610178578063bc4e9e10146101c9578063c127b303146101e0578063e612204f14610261578063f905c15a146102f2578063fdb9da9314610307575b005b6100ae600160a060020a036004351661031f565b3480156100d057600080fd5b506100e5600160a060020a03600435166104a7565b60408051918252519081900360200190f35b6100ae6104da565b6100e5600160a060020a0360043516610560565b34801561011f57600080fd5b506101286105f7565b60408051602080825283518183015283519192839290830191858101910280838360005b8381101561016457818101518382015260200161014c565b505050509050019250505060405180910390f35b34801561018457600080fd5b50610199600160a060020a03600435166106cd565b60408051600160a060020a0390951685526020850193909352838301919091526060830152519081900360800190f35b6100ae600160a060020a0360043516602435610700565b604080516020600480358082013583810280860185019096528085526100ae95369593946024949385019291829185019084908082843750506040805187358901803560208181028481018201909552818452989b9a9989019892975090820195509350839250850190849080828437509497506108489650505050505050565b6040805160206004602480358281013584810280870186019097528086526100ae968435600160a060020a031696369660449591949091019291829185019084908082843750506040805187358901803560208181028481018201909552818452989b9a99890198929750908201955093508392508501908490808284375094975050933594506109bf9350505050565b3480156102fe57600080fd5b506100e5610c95565b34801561031357600080fd5b506100e5600435610c9b565b600160a060020a03811660009081526003602081905260409091200154819043116103ba576040805160e560020a62461bcd02815260206004820152603860248201527f77696c6c206f776e6572206973207374696c6c20616c6976652c206f72206e6f60448201527f7420656e6f7567682074696d6520686173207061737365640000000000000000606482015290519081900360840190fd5b60025415610412576040805160e560020a62461bcd02815260206004820152601560248201527f736f6d656f6e65206973207573696e6720746869730000000000000000000000604482015290519081900360640190fd5b6001600255600160a060020a03821660009081526003602090815260408083203380855260059091019092528083205490519192670de0b6b3a764000090910280156108fc02929091818181858888f19350505050158015610478573d6000803e3d6000fd5b5050600160a060020a031660009081526003602090815260408083203384526005019091528120819055600255565b600160a060020a03166000908152600360209081526040808320338452600501909152902054670de0b6b3a76400000290565b33600090815260036020819052604090912001541515610544576040805160e560020a62461bcd02815260206004820152601660248201527f6e6f2077696c6c20746f2061646a757374206865726500000000000000000000604482015290519081900360640190fd5b3360009081526003602081905260409091200180546004019055565b600160a060020a0381811660009081526003602052604081205490911633146105d3576040805160e560020a62461bcd02815260206004820152601060248201527f796f7520676f74206e6f20706f77657200000000000000000000000000000000604482015290519081900360640190fd5b50600160a060020a0316600090815260036020819052604090912043910181905590565b60608060006003600033600160a060020a0316600160a060020a031681526020019081526020016000206002015460405190808252806020026020018201604052801561064e578160200160208202803883390190505b509150600090505b336000908152600360205260409020600201548110156106c7573360009081526003602090815260408083208484526004019091529020548251600160a060020a03909116908390839081106106a857fe5b600160a060020a03909216602092830290910190910152600101610656565b50919050565b60036020819052600091825260409091208054600182015460028301549290930154600160a060020a0390911692919084565b60025415610758576040805160e560020a62461bcd02815260206004820152601560248201527f736f6d656f6e65206973207573696e6720746869730000000000000000000000604482015290519081900360640190fd5b600160a060020a03821660009081526003602090815260409182902060010154825180830185905283518082038401815290840193849052805191939092909182918401908083835b602083106107c05780518252601f1990920191602091820191016107a1565b6001836020036101000a038019825116818451168082178552505050505050905001915050604051809103902060001916141515610412576040805160e560020a62461bcd02815260206004820152601060248201527f696e76616c69642070617373776f726400000000000000000000000000000000604482015290519081900360640190fd5b3360009081526003602081905260408220015415156108b1576040805160e560020a62461bcd02815260206004820152601660248201527f6e6f2077696c6c20746f2061646a757374206865726500000000000000000000604482015290519081900360640190fd5b5060005b82518110156109ba5782818151811015156108cc57fe5b6020908102919091018101513360009081526003835260408082206002810154835260040190935291909120805473ffffffffffffffffffffffffffffffffffffffff1916600160a060020a03909216919091179055815182908290811061093057fe5b906020019060200201516003600033600160a060020a0316600160a060020a031681526020019081526020016000206005016000858481518110151561097257fe5b6020908102909101810151600160a060020a031682528181019290925260409081016000908120939093553383526003909152902060020180546001908101909155016108b5565b505050565b6000808381805b82518110156109f45782818151811015156109dd57fe5b6020908102909101015191909101906001016109c6565b670de0b6b3a764000082023414610a55576040805160e560020a62461bcd02815260206004820152601860248201527f76616c756520616e642073756d20646f6e74206d617463680000000000000000604482015290519081900360640190fd5b600180543373ffffffffffffffffffffffffffffffffffffffff1991821681178355600090815260036020819052604082208054909316600160a060020a038e161783559282018990558a5160028301554392820192909255955093505b8751841015610b6b578684815181101515610aca57fe5b906020019060200201518560050160008a87815181101515610ae857fe5b6020908102909101810151600160a060020a03168252810191909152604001600020558751889085908110610b1957fe5b6020908102919091018101516000868152600488019092526040909120805473ffffffffffffffffffffffffffffffffffffffff1916600160a060020a03909216919091179055600190930192610ab3565b3360008181526003602081815260408084208a54815473ffffffffffffffffffffffffffffffffffffffff1916600160a060020a03919091161781556001808c0154908201556002808c015490820155838b0154930192909255815184815260608183018181528e51918301919091528d517f5c91d85571873902f35fa3c27e31ed2878628ca00139817be97b71529e896e4596958f958f959085019260808601928883019291909102908190849084905b83811015610c35578181015183820152602001610c1d565b50505050905001838103825284818151815260200191508051906020019060200280838360005b83811015610c74578181015183820152602001610c5c565b505050509050019550505050505060405180910390a1505050505050505050565b60005481565b600081604051602001808281526020019150506040516020818303038152906040526040518082805190602001908083835b60208310610cec5780518252601f199092019160209182019101610ccd565b5181516020939093036101000a60001901801990911692169190911790526040519201829003909120959450505050505600a165627a7a723058207cc701a98763414ef9a5bcb1c1880cdd5b0650c31ea1ca809365928790a96c6a0029",
    "sourcePath": "c:/Users/Student-TeoYongQuan/Desktop/Archive/Blockchain/project/contracts/Will_maker.sol",
    "compiler": {
        "name": "solc",
        "version": "0.4.25+commit.59dbf8f1"
    },
    "functionHashes": {
        "add_beneficiaries(address[],uint256[])": "c127b303",
        "claim_money(address)": "2d0b3f6c",
        "claim_money_pass(address,uint256)": "bc4e9e10",
        "create_will(address,address[],uint256[],bytes32)": "e612204f",
        "deployed()": "f905c15a",
        "execute(address)": "4b64e492",
        "get_beneficiaries()": "65965308",
        "get_inheritance(address)": "3adb6a2a",
        "gethash(uint256)": "fdb9da93",
        "still_alive()": "3d58225a",
        "wills(address)": "a4cb92fa"
    },
    "gasEstimates": {
        "creation": {
            "codeDepositCost": "680400",
            "executionCost": "20697",
            "totalCost": "701097"
        },
        "external": {
            "": "302",
            "add_beneficiaries(address[],uint256[])": "infinite",
            "claim_money(address)": "infinite",
            "claim_money_pass(address,uint256)": "infinite",
            "create_will(address,address[],uint256[],bytes32)": "infinite",
            "deployed()": "582",
            "execute(address)": "20851",
            "get_beneficiaries()": "infinite",
            "get_inheritance(address)": "713",
            "gethash(uint256)": "infinite",
            "still_alive()": "20748",
            "wills(address)": "1514"
        }
    }
}