{
  "contractName": "Will_maker",
  "abi": [
    {
      "inputs": [],
      "payable": true,
      "stateMutability": "payable",
      "type": "constructor"
    },
    {
      "anonymous": false,
      "inputs": [
        {
          "indexed": false,
          "internalType": "address",
          "name": "_owner",
          "type": "address"
        },
        {
          "indexed": false,
          "internalType": "address[]",
          "name": "_bene",
          "type": "address[]"
        },
        {
          "indexed": false,
          "internalType": "uint256[]",
          "name": "_values",
          "type": "uint256[]"
        }
      ],
      "name": "created_will",
      "type": "event"
    },
    {
      "payable": true,
      "stateMutability": "payable",
      "type": "fallback"
    },
    {
      "constant": true,
      "inputs": [],
      "name": "deployed",
      "outputs": [
        {
          "internalType": "uint256",
          "name": "",
          "type": "uint256"
        }
      ],
      "payable": false,
      "stateMutability": "view",
      "type": "function"
    },
    {
      "constant": true,
      "inputs": [
        {
          "internalType": "address",
          "name": "",
          "type": "address"
        }
      ],
      "name": "wills",
      "outputs": [
        {
          "internalType": "address",
          "name": "executor",
          "type": "address"
        },
        {
          "internalType": "bytes32",
          "name": "secret",
          "type": "bytes32"
        },
        {
          "internalType": "uint256",
          "name": "count",
          "type": "uint256"
        },
        {
          "internalType": "uint256",
          "name": "expiry",
          "type": "uint256"
        }
      ],
      "payable": false,
      "stateMutability": "view",
      "type": "function"
    },
    {
      "constant": false,
      "inputs": [
        {
          "internalType": "address",
          "name": "_exe",
          "type": "address"
        },
        {
          "internalType": "address[]",
          "name": "_beneficiaries",
          "type": "address[]"
        },
        {
          "internalType": "uint256[]",
          "name": "_values",
          "type": "uint256[]"
        },
        {
          "internalType": "bytes32",
          "name": "_sec",
          "type": "bytes32"
        }
      ],
      "name": "create_will",
      "outputs": [],
      "payable": true,
      "stateMutability": "payable",
      "type": "function"
    },
    {
      "constant": true,
      "inputs": [],
      "name": "get_beneficiaries",
      "outputs": [
        {
          "internalType": "address[]",
          "name": "",
          "type": "address[]"
        }
      ],
      "payable": false,
      "stateMutability": "view",
      "type": "function"
    },
    {
      "constant": false,
      "inputs": [
        {
          "internalType": "address[]",
          "name": "_benes",
          "type": "address[]"
        },
        {
          "internalType": "uint256[]",
          "name": "_values",
          "type": "uint256[]"
        }
      ],
      "name": "add_beneficiaries",
      "outputs": [],
      "payable": true,
      "stateMutability": "payable",
      "type": "function"
    },
    {
      "constant": true,
      "inputs": [
        {
          "internalType": "address",
          "name": "_owner",
          "type": "address"
        }
      ],
      "name": "get_inheritance",
      "outputs": [
        {
          "internalType": "uint256",
          "name": "_amount",
          "type": "uint256"
        }
      ],
      "payable": false,
      "stateMutability": "view",
      "type": "function"
    },
    {
      "constant": false,
      "inputs": [],
      "name": "still_alive",
      "outputs": [],
      "payable": true,
      "stateMutability": "payable",
      "type": "function"
    },
    {
      "constant": false,
      "inputs": [
        {
          "internalType": "address",
          "name": "_owner",
          "type": "address"
        }
      ],
      "name": "claim_money",
      "outputs": [],
      "payable": true,
      "stateMutability": "payable",
      "type": "function"
    },
    {
      "constant": false,
      "inputs": [
        {
          "internalType": "address",
          "name": "_owner",
          "type": "address"
        },
        {
          "internalType": "bytes32",
          "name": "_secret",
          "type": "bytes32"
        }
      ],
      "name": "unlock",
      "outputs": [],
      "payable": true,
      "stateMutability": "payable",
      "type": "function"
    },
    {
      "constant": true,
      "inputs": [
        {
          "internalType": "uint256",
          "name": "ran",
          "type": "uint256"
        }
      ],
      "name": "gethash",
      "outputs": [
        {
          "internalType": "bytes32",
          "name": "",
          "type": "bytes32"
        }
      ],
      "payable": false,
      "stateMutability": "pure",
      "type": "function"
    }
  ],
  "bytecode": "0x608060405260016000556113ae806100186000396000f3fe6080604052600436106100915760003560e01c8063a4cb92fa11610059578063a4cb92fa14610200578063c127b303146102a6578063e612204f146103f2578063f905c15a14610568578063fdb9da931461059357610091565b80632d0b3f6c146100935780633adb6a2a146100d75780633d58225a1461013c5780636596530814610146578063785fd544146101b2575b005b6100d5600480360360208110156100a957600080fd5b81019080803573ffffffffffffffffffffffffffffffffffffffff1690602001909291905050506105e2565b005b3480156100e357600080fd5b50610126600480360360208110156100fa57600080fd5b81019080803573ffffffffffffffffffffffffffffffffffffffff1690602001909291905050506107ba565b6040518082815260200191505060405180910390f35b610144610843565b005b34801561015257600080fd5b5061015b61094e565b6040518080602001828103825283818151815260200191508051906020019060200280838360005b8381101561019e578082015181840152602081019050610183565b505050509050019250505060405180910390f35b6101fe600480360360408110156101c857600080fd5b81019080803573ffffffffffffffffffffffffffffffffffffffff16906020019092919080359060200190929190505050610ae4565b005b34801561020c57600080fd5b5061024f6004803603602081101561022357600080fd5b81019080803573ffffffffffffffffffffffffffffffffffffffff169060200190929190505050610be7565b604051808573ffffffffffffffffffffffffffffffffffffffff1673ffffffffffffffffffffffffffffffffffffffff16815260200184815260200183815260200182815260200194505050505060405180910390f35b6103f0600480360360408110156102bc57600080fd5b81019080803590602001906401000000008111156102d957600080fd5b8201836020820111156102eb57600080fd5b8035906020019184602083028401116401000000008311171561030d57600080fd5b919080806020026020016040519081016040528093929190818152602001838360200280828437600081840152601f19601f8201169050808301925050505050505091929192908035906020019064010000000081111561036d57600080fd5b82018360208201111561037f57600080fd5b803590602001918460208302840111640100000000831117156103a157600080fd5b919080806020026020016040519081016040528093929190818152602001838360200280828437600081840152601f19601f820116905080830192505050505050509192919290505050610c37565b005b6105666004803603608081101561040857600080fd5b81019080803573ffffffffffffffffffffffffffffffffffffffff1690602001909291908035906020019064010000000081111561044557600080fd5b82018360208201111561045757600080fd5b8035906020019184602083028401116401000000008311171561047957600080fd5b919080806020026020016040519081016040528093929190818152602001838360200280828437600081840152601f19601f820116905080830192505050505050509192919290803590602001906401000000008111156104d957600080fd5b8201836020820111156104eb57600080fd5b8035906020019184602083028401116401000000008311171561050d57600080fd5b919080806020026020016040519081016040528093929190818152602001838360200280828437600081840152601f19601f82011690508083019250505050505050919291929080359060200190929190505050610ef3565b005b34801561057457600080fd5b5061057d611343565b6040518082815260200191505060405180910390f35b34801561059f57600080fd5b506105cc600480360360208110156105b657600080fd5b8101908080359060200190929190505050611349565b6040518082815260200191505060405180910390f35b6000808114610659576040517f08c379a00000000000000000000000000000000000000000000000000000000081526004018080602001828103825260158152602001807f736f6d656f6e65206973207573696e672074686973000000000000000000000081525060200191505060405180910390fd5b600190503373ffffffffffffffffffffffffffffffffffffffff166108fc670de0b6b3a7640000600260008673ffffffffffffffffffffffffffffffffffffffff1673ffffffffffffffffffffffffffffffffffffffff16815260200190815260200160002060050160003373ffffffffffffffffffffffffffffffffffffffff1673ffffffffffffffffffffffffffffffffffffffff16815260200190815260200160002054029081150290604051600060405180830381858888f1935050505015801561072c573d6000803e3d6000fd5b506000600260008473ffffffffffffffffffffffffffffffffffffffff1673ffffffffffffffffffffffffffffffffffffffff16815260200190815260200160002060050160003373ffffffffffffffffffffffffffffffffffffffff1673ffffffffffffffffffffffffffffffffffffffff16815260200190815260200160002081905550600090505050565b6000600260008373ffffffffffffffffffffffffffffffffffffffff1673ffffffffffffffffffffffffffffffffffffffff16815260200190815260200160002060050160003373ffffffffffffffffffffffffffffffffffffffff1673ffffffffffffffffffffffffffffffffffffffff168152602001908152602001600020549050919050565b6000600260003373ffffffffffffffffffffffffffffffffffffffff1673ffffffffffffffffffffffffffffffffffffffff1681526020019081526020016000206003015414156108fc576040517f08c379a00000000000000000000000000000000000000000000000000000000081526004018080602001828103825260168152602001807f6e6f2077696c6c20746f2061646a75737420686572650000000000000000000081525060200191505060405180910390fd5b60028060003373ffffffffffffffffffffffffffffffffffffffff1673ffffffffffffffffffffffffffffffffffffffff16815260200190815260200160002060030160008282540192505081905550565b606080600260003373ffffffffffffffffffffffffffffffffffffffff1673ffffffffffffffffffffffffffffffffffffffff168152602001908152602001600020600201546040519080825280602002602001820160405280156109c25781602001602082028038833980820191505090505b50905060008090505b600260003373ffffffffffffffffffffffffffffffffffffffff1673ffffffffffffffffffffffffffffffffffffffff16815260200190815260200160002060020154811015610adc57600260003373ffffffffffffffffffffffffffffffffffffffff1673ffffffffffffffffffffffffffffffffffffffff168152602001908152602001600020600401600082815260200190815260200160002060009054906101000a900473ffffffffffffffffffffffffffffffffffffffff16828281518110610a9557fe5b602002602001019073ffffffffffffffffffffffffffffffffffffffff16908173ffffffffffffffffffffffffffffffffffffffff168152505080806001019150506109cb565b508091505090565b600260008373ffffffffffffffffffffffffffffffffffffffff1673ffffffffffffffffffffffffffffffffffffffff168152602001908152602001600020600101548114610b9b576040517f08c379a000000000000000000000000000000000000000000000000000000000815260040180806020018281038252600a8152602001807f77726f6e6720706173730000000000000000000000000000000000000000000081525060200191505060405180910390fd5b6000600260008473ffffffffffffffffffffffffffffffffffffffff1673ffffffffffffffffffffffffffffffffffffffff168152602001908152602001600020600301819055505050565b60026020528060005260406000206000915090508060000160009054906101000a900473ffffffffffffffffffffffffffffffffffffffff16908060010154908060020154908060030154905084565b6000600260003373ffffffffffffffffffffffffffffffffffffffff1673ffffffffffffffffffffffffffffffffffffffff168152602001908152602001600020600301541415610cf0576040517f08c379a00000000000000000000000000000000000000000000000000000000081526004018080602001828103825260168152602001807f6e6f2077696c6c20746f2061646a75737420686572650000000000000000000081525060200191505060405180910390fd5b60008090505b8251811015610eee57828181518110610d0b57fe5b6020026020010151600260003373ffffffffffffffffffffffffffffffffffffffff1673ffffffffffffffffffffffffffffffffffffffff1681526020019081526020016000206004016000600260003373ffffffffffffffffffffffffffffffffffffffff1673ffffffffffffffffffffffffffffffffffffffff16815260200190815260200160002060020154815260200190815260200160002060006101000a81548173ffffffffffffffffffffffffffffffffffffffff021916908373ffffffffffffffffffffffffffffffffffffffff160217905550818181518110610df257fe5b6020026020010151600260003373ffffffffffffffffffffffffffffffffffffffff1673ffffffffffffffffffffffffffffffffffffffff1681526020019081526020016000206005016000858481518110610e4a57fe5b602002602001015173ffffffffffffffffffffffffffffffffffffffff1673ffffffffffffffffffffffffffffffffffffffff168152602001908152602001600020819055506001600260003373ffffffffffffffffffffffffffffffffffffffff1673ffffffffffffffffffffffffffffffffffffffff168152602001908152602001600020600201600082825401925050819055508080600101915050610cf6565b505050565b81600080600090505b8251811015610f2a57828181518110610f1157fe5b6020026020010151820191508080600101915050610efc565b5034670de0b6b3a7640000820214610faa576040517f08c379a00000000000000000000000000000000000000000000000000000000081526004018080602001828103825260188152602001807f76616c756520616e642073756d20646f6e74206d61746368000000000000000081525060200191505060405180910390fd5b33600160006101000a81548173ffffffffffffffffffffffffffffffffffffffff021916908373ffffffffffffffffffffffffffffffffffffffff1602179055506000600260003373ffffffffffffffffffffffffffffffffffffffff1673ffffffffffffffffffffffffffffffffffffffff1681526020019081526020016000209050868160000160006101000a81548173ffffffffffffffffffffffffffffffffffffffff021916908373ffffffffffffffffffffffffffffffffffffffff1602179055508381600101819055508551816002018190555043816003018190555060008090505b865181101561117c578581815181106110a857fe5b60200260200101518260050160008984815181106110c257fe5b602002602001015173ffffffffffffffffffffffffffffffffffffffff1673ffffffffffffffffffffffffffffffffffffffff1681526020019081526020016000208190555086818151811061111457fe5b602002602001015182600401600083815260200190815260200160002060006101000a81548173ffffffffffffffffffffffffffffffffffffffff021916908373ffffffffffffffffffffffffffffffffffffffff1602179055508080600101915050611093565b5080600260003373ffffffffffffffffffffffffffffffffffffffff1673ffffffffffffffffffffffffffffffffffffffff1681526020019081526020016000206000820160009054906101000a900473ffffffffffffffffffffffffffffffffffffffff168160000160006101000a81548173ffffffffffffffffffffffffffffffffffffffff021916908373ffffffffffffffffffffffffffffffffffffffff1602179055506001820154816001015560028201548160020155600382015481600301559050507f5c91d85571873902f35fa3c27e31ed2878628ca00139817be97b71529e896e45338787604051808473ffffffffffffffffffffffffffffffffffffffff1673ffffffffffffffffffffffffffffffffffffffff1681526020018060200180602001838103835285818151815260200191508051906020019060200280838360005b838110156112e25780820151818401526020810190506112c7565b50505050905001838103825284818151815260200191508051906020019060200280838360005b83811015611324578082015181840152602081019050611309565b505050509050019550505050505060405180910390a150505050505050565b60005481565b6000816040516020018082815260200191505060405160208183030381529060405280519060200120905091905056fea265627a7a72315820dd076ac476ed12e232621ed565e4b77e5728e6b1e8c20503a2c230e47de7c41e64736f6c63430005100032",
  "source": "pragma solidity >=0.4.21 <0.7.0;\r\n\r\n\r\ncontract Will_maker {\r\n    //address[] wills;\r\n    //address owner;\r\n    //uint256 give_away;\r\n    //bool alive;\r\n    //bytes32 secret;\r\n    //address executer;\r\n    uint public deployed = 1;\r\n    address owners;\r\n    constructor() public payable {\r\n\r\n    }\r\n    modifier onlyBeneficiaries(address _owner){\r\n        require(wills[_owner].beneficiaries[msg.sender] != 0,\"you do not have an inheritance here\");\r\n        _;\r\n    }\r\n\r\n    modifier willOwners(){\r\n        require(wills[msg.sender].expiry != 0,\"no will to adjust here\");\r\n        _;\r\n    }\r\n    modifier ownerDied(address _owner){\r\n        require(block.number > wills[_owner].expiry,\"will owner is still alive, or not enough time has passed\");\r\n        _;\r\n    }\r\n\r\n    modifier enoughMoney(uint[] memory _values){\r\n        uint sum;\r\n        for (uint j = 0; j < _values.length; j++){\r\n            sum = sum + _values[j];\r\n        }\r\n        require(sum*1 ether == msg.value,\"value and sum dont match\");\r\n        _;\r\n    }\r\n    struct Will{\r\n        address executor;\r\n        //uint[] values;\r\n\r\n        bytes32 secret;\r\n        uint count;\r\n        uint256 expiry;\r\n\r\n        //address[] beneficiaries;\r\n        //uint[] values;\r\n        mapping(uint => address) beneficiariesList;\r\n        mapping(address  => uint) beneficiaries;\r\n    }\r\n    event created_will(\r\n        address _owner,\r\n        address[] _bene,\r\n        uint[] _values\r\n    );\r\n    mapping(address => Will) public wills;\r\n    function create_will(address _exe, address[] memory _beneficiaries,uint[] memory _values,bytes32 _sec) enoughMoney(_values)  public payable{\r\n        // create the struct\r\n        owners = msg.sender;\r\n        Will storage w = wills[msg.sender];\r\n        w.executor = _exe;\r\n        w.secret = _sec;\r\n        w.count = _beneficiaries.length;\r\n        //w.beneficiaries = _beneficiaries;\r\n        //w.values = _values;\r\n        w.expiry = block.number;\r\n        for (uint i = 0; i < _beneficiaries.length; i++ ){\r\n            w.beneficiaries[_beneficiaries[i]] = _values[i];\r\n            w.beneficiariesList[i] = _beneficiaries[i];\r\n        }\r\n        wills[msg.sender] = w;\r\n        emit created_will(msg.sender,_beneficiaries,_values);\r\n    }\r\n    function get_beneficiaries() public view returns(address[] memory) {\r\n        address[] memory out = new address[](wills[msg.sender].count);\r\n        for (uint i = 0; i < wills[msg.sender].count; i++){\r\n            out[i] = wills[msg.sender].beneficiariesList[i];\r\n        }\r\n        return out;\r\n        //return wills[msg.sender].beneficiaries;\r\n    }\r\n    function add_beneficiaries(address[] memory _benes,uint[] memory _values) public payable willOwners(){\r\n       for (uint i = 0;i<_benes.length;i++){\r\n           wills[msg.sender].beneficiariesList[wills[msg.sender].count] = _benes[i];\r\n           wills[msg.sender].beneficiaries[_benes[i]] = _values[i];\r\n           wills[msg.sender].count += 1;\r\n       }\r\n    }\r\n\r\n    function get_inheritance(address _owner) public view returns(uint _amount){\r\n        return wills[_owner].beneficiaries[msg.sender];\r\n        /*for (uint i = 0; i<wills[_owner].count; i++){\r\n            if(wills[_owner].beneficiaries[i] == msg.sender){\r\n                return wills[_owner].values[i];\r\n            }\r\n        }*/\r\n    }\r\n\r\n    function still_alive() public willOwners  payable {\r\n        wills[msg.sender].expiry += 2;\r\n    }\r\n\r\n    function claim_money(address _owner) public payable{\r\n        uint lock;\r\n        require(lock==0,\"someone is using this\");\r\n        lock = 1;\r\n        msg.sender.transfer(wills[_owner].beneficiaries[msg.sender] * 1 ether);\r\n        wills[_owner].beneficiaries[msg.sender] = 0;\r\n        lock = 0;\r\n    }\r\n\r\n    function unlock(address _owner, bytes32 _secret) public payable{\r\n        require(_secret == wills[_owner].secret,\"wrong pass\");\r\n        wills[_owner].expiry = 0;\r\n    }\r\n\r\n    function gethash(uint ran)  public pure returns(bytes32){\r\n        return(keccak256(abi.encodePacked(ran)));\r\n    }\r\n\r\n\r\n    function() external payable{\r\n    }\r\n\r\n}",
  "sourcePath": "C:\\Users\\Student-TeoYongQuan\\Desktop\\Archive\\Blockchain\\project\\contracts\\Will_maker.sol",
  "compiler": {
    "name": "solc",
    "version": "0.5.16+commit.9c3226ce.Emscripten.clang"
  },
  "schemaVersion": "3.1.0",
  "updatedAt": "2020-04-27T16:20:49.367Z",
  "networkType": "ethereum",
  "devdoc": {
    "methods": {}
  },
  "userdoc": {
    "methods": {}
  }
}