{
  "contractName": "Will_maker",
  "abi": [
    {
      "inputs": [],
      "payable": true,
      "stateMutability": "payable",
      "type": "constructor"
    },
    {
      "anonymous": false,
      "inputs": [
        {
          "indexed": false,
          "internalType": "address",
          "name": "_owner",
          "type": "address"
        },
        {
          "indexed": false,
          "internalType": "address[]",
          "name": "_bene",
          "type": "address[]"
        },
        {
          "indexed": false,
          "internalType": "uint256[]",
          "name": "_values",
          "type": "uint256[]"
        }
      ],
      "name": "created_will",
      "type": "event"
    },
    {
      "payable": true,
      "stateMutability": "payable",
      "type": "fallback"
    },
    {
      "constant": true,
      "inputs": [],
      "name": "deployed",
      "outputs": [
        {
          "internalType": "uint256",
          "name": "",
          "type": "uint256"
        }
      ],
      "payable": false,
      "stateMutability": "view",
      "type": "function"
    },
    {
      "constant": true,
      "inputs": [
        {
          "internalType": "address",
          "name": "",
          "type": "address"
        }
      ],
      "name": "wills",
      "outputs": [
        {
          "internalType": "address",
          "name": "executor",
          "type": "address"
        },
        {
          "internalType": "bytes32",
          "name": "secret",
          "type": "bytes32"
        },
        {
          "internalType": "uint256",
          "name": "count",
          "type": "uint256"
        },
        {
          "internalType": "uint256",
          "name": "expiry",
          "type": "uint256"
        }
      ],
      "payable": false,
      "stateMutability": "view",
      "type": "function"
    },
    {
      "constant": false,
      "inputs": [
        {
          "internalType": "address",
          "name": "_exe",
          "type": "address"
        },
        {
          "internalType": "address[]",
          "name": "_beneficiaries",
          "type": "address[]"
        },
        {
          "internalType": "uint256[]",
          "name": "_values",
          "type": "uint256[]"
        },
        {
          "internalType": "bytes32",
          "name": "_sec",
          "type": "bytes32"
        }
      ],
      "name": "create_will",
      "outputs": [],
      "payable": true,
      "stateMutability": "payable",
      "type": "function"
    },
    {
      "constant": true,
      "inputs": [],
      "name": "get_beneficiaries",
      "outputs": [
        {
          "internalType": "address[]",
          "name": "",
          "type": "address[]"
        }
      ],
      "payable": false,
      "stateMutability": "view",
      "type": "function"
    },
    {
      "constant": false,
      "inputs": [
        {
          "internalType": "address[]",
          "name": "_benes",
          "type": "address[]"
        },
        {
          "internalType": "uint256[]",
          "name": "_values",
          "type": "uint256[]"
        }
      ],
      "name": "add_beneficiaries",
      "outputs": [],
      "payable": true,
      "stateMutability": "payable",
      "type": "function"
    },
    {
      "constant": false,
      "inputs": [
        {
          "internalType": "address",
          "name": "_bene",
          "type": "address"
        }
      ],
      "name": "remove_beneficiary",
      "outputs": [],
      "payable": true,
      "stateMutability": "payable",
      "type": "function"
    },
    {
      "constant": true,
      "inputs": [
        {
          "internalType": "address",
          "name": "_owner",
          "type": "address"
        }
      ],
      "name": "get_inheritance",
      "outputs": [
        {
          "internalType": "uint256",
          "name": "_amount",
          "type": "uint256"
        }
      ],
      "payable": false,
      "stateMutability": "view",
      "type": "function"
    },
    {
      "constant": false,
      "inputs": [
        {
          "internalType": "address",
          "name": "_owner",
          "type": "address"
        }
      ],
      "name": "claim_money",
      "outputs": [],
      "payable": true,
      "stateMutability": "payable",
      "type": "function"
    },
    {
      "constant": false,
      "inputs": [
        {
          "internalType": "address",
          "name": "_owner",
          "type": "address"
        },
        {
          "internalType": "uint256",
          "name": "_pass",
          "type": "uint256"
        }
      ],
      "name": "claim_money_pass",
      "outputs": [],
      "payable": true,
      "stateMutability": "payable",
      "type": "function"
    },
    {
      "constant": false,
      "inputs": [],
      "name": "still_alive",
      "outputs": [],
      "payable": true,
      "stateMutability": "payable",
      "type": "function"
    },
    {
      "constant": false,
      "inputs": [
        {
          "internalType": "address",
          "name": "_owner",
          "type": "address"
        }
      ],
      "name": "execute",
      "outputs": [
        {
          "internalType": "uint256",
          "name": "",
          "type": "uint256"
        }
      ],
      "payable": true,
      "stateMutability": "payable",
      "type": "function"
    },
    {
      "constant": true,
      "inputs": [
        {
          "internalType": "uint256",
          "name": "ran",
          "type": "uint256"
        }
      ],
      "name": "gethash",
      "outputs": [
        {
          "internalType": "bytes32",
          "name": "",
          "type": "bytes32"
        }
      ],
      "payable": false,
      "stateMutability": "pure",
      "type": "function"
    }
  ],
  "bytecode": "0x60806040526001600055611fad806100186000396000f3fe6080604052600436106100a75760003560e01c8063b8c1a74d11610064578063b8c1a74d146102c6578063bc4e9e101461030a578063c127b30314610358578063e612204f146104a4578063f905c15a1461061a578063fdb9da9314610645576100a7565b80632d0b3f6c146100a95780633adb6a2a146100ed5780633d58225a146101525780634b64e4921461015c57806365965308146101b4578063a4cb92fa14610220575b005b6100eb600480360360208110156100bf57600080fd5b81019080803573ffffffffffffffffffffffffffffffffffffffff169060200190929190505050610694565b005b3480156100f957600080fd5b5061013c6004803603602081101561011057600080fd5b81019080803573ffffffffffffffffffffffffffffffffffffffff1690602001909291905050506109dd565b6040518082815260200191505060405180910390f35b61015a610a70565b005b61019e6004803603602081101561017257600080fd5b81019080803573ffffffffffffffffffffffffffffffffffffffff169060200190929190505050610b7c565b6040518082815260200191505060405180910390f35b3480156101c057600080fd5b506101c9610d12565b6040518080602001828103825283818151815260200191508051906020019060200280838360005b8381101561020c5780820151818401526020810190506101f1565b505050509050019250505060405180910390f35b34801561022c57600080fd5b5061026f6004803603602081101561024357600080fd5b81019080803573ffffffffffffffffffffffffffffffffffffffff169060200190929190505050610f62565b604051808573ffffffffffffffffffffffffffffffffffffffff1673ffffffffffffffffffffffffffffffffffffffff16815260200184815260200183815260200182815260200194505050505060405180910390f35b610308600480360360208110156102dc57600080fd5b81019080803573ffffffffffffffffffffffffffffffffffffffff169060200190929190505050610fb2565b005b6103566004803603604081101561032057600080fd5b81019080803573ffffffffffffffffffffffffffffffffffffffff169060200190929190803590602001909291905050506114b4565b005b6104a26004803603604081101561036e57600080fd5b810190808035906020019064010000000081111561038b57600080fd5b82018360208201111561039d57600080fd5b803590602001918460208302840111640100000000831117156103bf57600080fd5b919080806020026020016040519081016040528093929190818152602001838360200280828437600081840152601f19601f8201169050808301925050505050505091929192908035906020019064010000000081111561041f57600080fd5b82018360208201111561043157600080fd5b8035906020019184602083028401116401000000008311171561045357600080fd5b919080806020026020016040519081016040528093929190818152602001838360200280828437600081840152601f19601f82011690508083019250505050505050919291929050505061183f565b005b610618600480360360808110156104ba57600080fd5b81019080803573ffffffffffffffffffffffffffffffffffffffff169060200190929190803590602001906401000000008111156104f757600080fd5b82018360208201111561050957600080fd5b8035906020019184602083028401116401000000008311171561052b57600080fd5b919080806020026020016040519081016040528093929190818152602001838360200280828437600081840152601f19601f8201169050808301925050505050505091929192908035906020019064010000000081111561058b57600080fd5b82018360208201111561059d57600080fd5b803590602001918460208302840111640100000000831117156105bf57600080fd5b919080806020026020016040519081016040528093929190818152602001838360200280828437600081840152601f19601f82011690508083019250505050505050919291929080359060200190929190505050611afb565b005b34801561062657600080fd5b5061062f611f0a565b6040518082815260200191505060405180910390f35b34801561065157600080fd5b5061067e6004803603602081101561066857600080fd5b8101908080359060200190929190505050611f10565b6040518082815260200191505060405180910390f35b80600260008273ffffffffffffffffffffffffffffffffffffffff1673ffffffffffffffffffffffffffffffffffffffff16815260200190815260200160002060030154431161072f576040517f08c379a0000000000000000000000000000000000000000000000000000000008152600401808060200182810382526038815260200180611f416038913960400191505060405180910390fd5b6000600160009054906101000a900460ff1660ff16146107b7576040517f08c379a00000000000000000000000000000000000000000000000000000000081526004018080602001828103825260158152602001807f736f6d656f6e65206973207573696e672074686973000000000000000000000081525060200191505060405180910390fd5b60018060006101000a81548160ff021916908360ff16021790555060003373ffffffffffffffffffffffffffffffffffffffff16670de0b6b3a7640000600260008673ffffffffffffffffffffffffffffffffffffffff1673ffffffffffffffffffffffffffffffffffffffff16815260200190815260200160002060050160003373ffffffffffffffffffffffffffffffffffffffff1673ffffffffffffffffffffffffffffffffffffffff168152602001908152602001600020540260405180600001905060006040518083038185875af1925050503d80600081146108bb576040519150601f19603f3d011682016040523d82523d6000602084013e6108c0565b606091505b5050905080610937576040517f08c379a000000000000000000000000000000000000000000000000000000000815260040180806020018281038252600d8152602001807f6661696c656420746f207061790000000000000000000000000000000000000081525060200191505060405180910390fd5b6000600260008573ffffffffffffffffffffffffffffffffffffffff1673ffffffffffffffffffffffffffffffffffffffff16815260200190815260200160002060050160003373ffffffffffffffffffffffffffffffffffffffff1673ffffffffffffffffffffffffffffffffffffffff168152602001908152602001600020819055506000600160006101000a81548160ff021916908360ff160217905550505050565b6000670de0b6b3a7640000600260008473ffffffffffffffffffffffffffffffffffffffff1673ffffffffffffffffffffffffffffffffffffffff16815260200190815260200160002060050160003373ffffffffffffffffffffffffffffffffffffffff1673ffffffffffffffffffffffffffffffffffffffff16815260200190815260200160002054029050919050565b6000600260003373ffffffffffffffffffffffffffffffffffffffff1673ffffffffffffffffffffffffffffffffffffffff168152602001908152602001600020600301541415610b29576040517f08c379a00000000000000000000000000000000000000000000000000000000081526004018080602001828103825260168152602001807f6e6f2077696c6c20746f2061646a75737420686572650000000000000000000081525060200191505060405180910390fd5b6004600260003373ffffffffffffffffffffffffffffffffffffffff1673ffffffffffffffffffffffffffffffffffffffff16815260200190815260200160002060030160008282540192505081905550565b6000600260008373ffffffffffffffffffffffffffffffffffffffff1673ffffffffffffffffffffffffffffffffffffffff16815260200190815260200160002060000160009054906101000a900473ffffffffffffffffffffffffffffffffffffffff1673ffffffffffffffffffffffffffffffffffffffff163373ffffffffffffffffffffffffffffffffffffffff1614610c81576040517f08c379a00000000000000000000000000000000000000000000000000000000081526004018080602001828103825260108152602001807f796f7520676f74206e6f20706f7765720000000000000000000000000000000081525060200191505060405180910390fd5b43600260008473ffffffffffffffffffffffffffffffffffffffff1673ffffffffffffffffffffffffffffffffffffffff16815260200190815260200160002060030181905550600260008373ffffffffffffffffffffffffffffffffffffffff1673ffffffffffffffffffffffffffffffffffffffff168152602001908152602001600020600301549050919050565b60606000600260003373ffffffffffffffffffffffffffffffffffffffff1673ffffffffffffffffffffffffffffffffffffffff168152602001908152602001600020600301541415610dcd576040517f08c379a00000000000000000000000000000000000000000000000000000000081526004018080602001828103825260168152602001807f6e6f2077696c6c20746f2061646a75737420686572650000000000000000000081525060200191505060405180910390fd5b6060600260003373ffffffffffffffffffffffffffffffffffffffff1673ffffffffffffffffffffffffffffffffffffffff16815260200190815260200160002060020154604051908082528060200260200182016040528015610e405781602001602082028038833980820191505090505b50905060008090505b600260003373ffffffffffffffffffffffffffffffffffffffff1673ffffffffffffffffffffffffffffffffffffffff16815260200190815260200160002060020154811015610f5a57600260003373ffffffffffffffffffffffffffffffffffffffff1673ffffffffffffffffffffffffffffffffffffffff168152602001908152602001600020600401600082815260200190815260200160002060009054906101000a900473ffffffffffffffffffffffffffffffffffffffff16828281518110610f1357fe5b602002602001019073ffffffffffffffffffffffffffffffffffffffff16908173ffffffffffffffffffffffffffffffffffffffff16815250508080600101915050610e49565b508091505090565b60026020528060005260406000206000915090508060000160009054906101000a900473ffffffffffffffffffffffffffffffffffffffff16908060010154908060020154908060030154905084565b6000600260003373ffffffffffffffffffffffffffffffffffffffff1673ffffffffffffffffffffffffffffffffffffffff16815260200190815260200160002060030154141561106b576040517f08c379a00000000000000000000000000000000000000000000000000000000081526004018080602001828103825260168152602001807f6e6f2077696c6c20746f2061646a75737420686572650000000000000000000081525060200191505060405180910390fd5b6000600160009054906101000a900460ff1660ff16146110f3576040517f08c379a000000000000000000000000000000000000000000000000000000000815260040180806020018281038252600b8152602001807f6c6f636b20696e2075736500000000000000000000000000000000000000000081525060200191505060405180910390fd5b60018060006101000a81548160ff021916908360ff1602179055506000600260003373ffffffffffffffffffffffffffffffffffffffff1673ffffffffffffffffffffffffffffffffffffffff16815260200190815260200160002060050160008373ffffffffffffffffffffffffffffffffffffffff1673ffffffffffffffffffffffffffffffffffffffff16815260200190815260200160002054905060003373ffffffffffffffffffffffffffffffffffffffff16670de0b6b3a7640000830260405180600001905060006040518083038185875af1925050503d80600081146111fc576040519150601f19603f3d011682016040523d82523d6000602084013e611201565b606091505b5050905080611278576040517f08c379a000000000000000000000000000000000000000000000000000000000815260040180806020018281038252600d8152602001807f6661696c656420746f207061790000000000000000000000000000000000000081525060200191505060405180910390fd5b6000600260003373ffffffffffffffffffffffffffffffffffffffff1673ffffffffffffffffffffffffffffffffffffffff16815260200190815260200160002060050160008573ffffffffffffffffffffffffffffffffffffffff1673ffffffffffffffffffffffffffffffffffffffff1681526020019081526020016000208190555060005b600260003373ffffffffffffffffffffffffffffffffffffffff1673ffffffffffffffffffffffffffffffffffffffff16815260200190815260200160002060020154811015611492578373ffffffffffffffffffffffffffffffffffffffff16600260003373ffffffffffffffffffffffffffffffffffffffff1673ffffffffffffffffffffffffffffffffffffffff168152602001908152602001600020600401600083815260200190815260200160002060009054906101000a900473ffffffffffffffffffffffffffffffffffffffff1673ffffffffffffffffffffffffffffffffffffffff161415611485576000600260003373ffffffffffffffffffffffffffffffffffffffff1673ffffffffffffffffffffffffffffffffffffffff168152602001908152602001600020600401600083815260200190815260200160002060006101000a81548173ffffffffffffffffffffffffffffffffffffffff021916908373ffffffffffffffffffffffffffffffffffffffff1602179055505b8080600101915050611300565b506000600160006101000a81548160ff021916908360ff160217905550505050565b6000600160009054906101000a900460ff1660ff161461153c576040517f08c379a00000000000000000000000000000000000000000000000000000000081526004018080602001828103825260158152602001807f736f6d656f6e65206973207573696e672074686973000000000000000000000081525060200191505060405180910390fd5b600260008373ffffffffffffffffffffffffffffffffffffffff1673ffffffffffffffffffffffffffffffffffffffff1681526020019081526020016000206001015481604051602001808281526020019150506040516020818303038152906040528051906020012014611619576040517f08c379a00000000000000000000000000000000000000000000000000000000081526004018080602001828103825260108152602001807f696e76616c69642070617373776f72640000000000000000000000000000000081525060200191505060405180910390fd5b60018060006101000a81548160ff021916908360ff16021790555060003373ffffffffffffffffffffffffffffffffffffffff16670de0b6b3a7640000600260008673ffffffffffffffffffffffffffffffffffffffff1673ffffffffffffffffffffffffffffffffffffffff16815260200190815260200160002060050160003373ffffffffffffffffffffffffffffffffffffffff1673ffffffffffffffffffffffffffffffffffffffff168152602001908152602001600020540260405180600001905060006040518083038185875af1925050503d806000811461171d576040519150601f19603f3d011682016040523d82523d6000602084013e611722565b606091505b5050905080611799576040517f08c379a000000000000000000000000000000000000000000000000000000000815260040180806020018281038252600d8152602001807f6661696c656420746f207061790000000000000000000000000000000000000081525060200191505060405180910390fd5b6000600260008573ffffffffffffffffffffffffffffffffffffffff1673ffffffffffffffffffffffffffffffffffffffff16815260200190815260200160002060050160003373ffffffffffffffffffffffffffffffffffffffff1673ffffffffffffffffffffffffffffffffffffffff168152602001908152602001600020819055506000600160006101000a81548160ff021916908360ff160217905550505050565b6000600260003373ffffffffffffffffffffffffffffffffffffffff1673ffffffffffffffffffffffffffffffffffffffff1681526020019081526020016000206003015414156118f8576040517f08c379a00000000000000000000000000000000000000000000000000000000081526004018080602001828103825260168152602001807f6e6f2077696c6c20746f2061646a75737420686572650000000000000000000081525060200191505060405180910390fd5b60008090505b8251811015611af65782818151811061191357fe5b6020026020010151600260003373ffffffffffffffffffffffffffffffffffffffff1673ffffffffffffffffffffffffffffffffffffffff1681526020019081526020016000206004016000600260003373ffffffffffffffffffffffffffffffffffffffff1673ffffffffffffffffffffffffffffffffffffffff16815260200190815260200160002060020154815260200190815260200160002060006101000a81548173ffffffffffffffffffffffffffffffffffffffff021916908373ffffffffffffffffffffffffffffffffffffffff1602179055508181815181106119fa57fe5b6020026020010151600260003373ffffffffffffffffffffffffffffffffffffffff1673ffffffffffffffffffffffffffffffffffffffff1681526020019081526020016000206005016000858481518110611a5257fe5b602002602001015173ffffffffffffffffffffffffffffffffffffffff1673ffffffffffffffffffffffffffffffffffffffff168152602001908152602001600020819055506001600260003373ffffffffffffffffffffffffffffffffffffffff1673ffffffffffffffffffffffffffffffffffffffff1681526020019081526020016000206002016000828254019250508190555080806001019150506118fe565b505050565b81600080600090505b8251811015611b3257828181518110611b1957fe5b6020026020010151820191508080600101915050611b04565b5034670de0b6b3a7640000820214611bb2576040517f08c379a00000000000000000000000000000000000000000000000000000000081526004018080602001828103825260188152602001807f76616c756520616e642073756d20646f6e74206d61746368000000000000000081525060200191505060405180910390fd5b6000600260003373ffffffffffffffffffffffffffffffffffffffff1673ffffffffffffffffffffffffffffffffffffffff1681526020019081526020016000209050868160000160006101000a81548173ffffffffffffffffffffffffffffffffffffffff021916908373ffffffffffffffffffffffffffffffffffffffff1602179055508381600101819055508551816002018190555043816003018190555060008090505b8651811015611d4357858181518110611c6f57fe5b6020026020010151826005016000898481518110611c8957fe5b602002602001015173ffffffffffffffffffffffffffffffffffffffff1673ffffffffffffffffffffffffffffffffffffffff16815260200190815260200160002081905550868181518110611cdb57fe5b602002602001015182600401600083815260200190815260200160002060006101000a81548173ffffffffffffffffffffffffffffffffffffffff021916908373ffffffffffffffffffffffffffffffffffffffff1602179055508080600101915050611c5a565b5080600260003373ffffffffffffffffffffffffffffffffffffffff1673ffffffffffffffffffffffffffffffffffffffff1681526020019081526020016000206000820160009054906101000a900473ffffffffffffffffffffffffffffffffffffffff168160000160006101000a81548173ffffffffffffffffffffffffffffffffffffffff021916908373ffffffffffffffffffffffffffffffffffffffff1602179055506001820154816001015560028201548160020155600382015481600301559050507f5c91d85571873902f35fa3c27e31ed2878628ca00139817be97b71529e896e45338787604051808473ffffffffffffffffffffffffffffffffffffffff1673ffffffffffffffffffffffffffffffffffffffff1681526020018060200180602001838103835285818151815260200191508051906020019060200280838360005b83811015611ea9578082015181840152602081019050611e8e565b50505050905001838103825284818151815260200191508051906020019060200280838360005b83811015611eeb578082015181840152602081019050611ed0565b505050509050019550505050505060405180910390a150505050505050565b60005481565b6000816040516020018082815260200191505060405160208183030381529060405280519060200120905091905056fe77696c6c206f776e6572206973207374696c6c20616c6976652c206f72206e6f7420656e6f7567682074696d652068617320706173736564a265627a7a723158202bc8eaf0d576f4dd5d34995caa7fd0b8b496285f3676fe9335e61026d856a27364736f6c63430005100032",
  "source": "pragma solidity >=0.4.21 <0.7.0;\r\n\r\n\r\ncontract Will_maker {\r\n    uint public deployed = 1;\r\n    uint8 lock;\r\n    constructor() public payable {\r\n    }\r\n    modifier onlyBeneficiaries(address _owner){\r\n        require(wills[_owner].beneficiaries[msg.sender] != 0,\"you do not have an inheritance here\");\r\n        _;\r\n    }\r\n\r\n    modifier willOwners(){\r\n        require(wills[msg.sender].expiry != 0,\"no will to adjust here\");\r\n        _;\r\n    }\r\n    modifier ownerDied(address _owner){\r\n        require(block.number > wills[_owner].expiry,\"will owner is still alive, or not enough time has passed\");\r\n        _;\r\n    }\r\n\r\n    modifier enoughMoney(uint[] memory _values){\r\n        uint sum;\r\n        for (uint j = 0; j < _values.length; j++){\r\n            sum = sum + _values[j];\r\n        }\r\n        require(sum*1 ether == msg.value,\"value and sum dont match\");\r\n        _;\r\n    }\r\n    struct Will{\r\n        address executor;\r\n        bytes32 secret;\r\n        uint count;\r\n        uint256 expiry;\r\n        mapping(uint => address) beneficiariesList;\r\n        mapping(address  => uint) beneficiaries;\r\n    }\r\n    event created_will(\r\n        address _owner,\r\n        address[] _bene,\r\n        uint[] _values\r\n    );\r\n    mapping(address => Will) public wills;\r\n    function create_will(address _exe, address[] memory _beneficiaries,uint[] memory _values,bytes32 _sec) public enoughMoney(_values) payable{\r\n        // create the struct\r\n        Will storage w = wills[msg.sender];\r\n        w.executor = _exe;\r\n        w.secret = _sec;\r\n        w.count = _beneficiaries.length;\r\n        //w.beneficiaries = _beneficiaries;\r\n        //w.values = _values;\r\n        w.expiry = block.number;\r\n        for (uint i = 0; i < _beneficiaries.length; i++ ){\r\n            w.beneficiaries[_beneficiaries[i]] = _values[i];\r\n            w.beneficiariesList[i] = _beneficiaries[i];\r\n        }\r\n        wills[msg.sender] = w;\r\n        emit created_will(msg.sender,_beneficiaries,_values);\r\n    }\r\n    function get_beneficiaries() public view willOwners() returns(address[] memory) {\r\n        address[] memory out = new address[](wills[msg.sender].count);\r\n        for (uint i = 0; i < wills[msg.sender].count; i++){\r\n            out[i] = wills[msg.sender].beneficiariesList[i];\r\n        }\r\n        return out;\r\n        //return wills[msg.sender].beneficiaries;\r\n    }\r\n    function add_beneficiaries(address[] memory _benes,uint[] memory _values) public payable willOwners(){\r\n       for (uint i = 0;i<_benes.length;i++){\r\n           wills[msg.sender].beneficiariesList[wills[msg.sender].count] = _benes[i];\r\n           wills[msg.sender].beneficiaries[_benes[i]] = _values[i];\r\n           wills[msg.sender].count += 1;\r\n       }\r\n    }\r\n    function remove_beneficiary(address _bene) public willOwners() payable{\r\n        require(lock==0,\"lock in use\");\r\n        lock = 1;\r\n        uint refund = wills[msg.sender].beneficiaries[_bene];\r\n        (bool success, ) = msg.sender.call.value(refund*1 ether)(\"\");\r\n        require(success,\"failed to pay\");\r\n        wills[msg.sender].beneficiaries[_bene] = 0;\r\n        for (uint i; i<wills[msg.sender].count;i++){\r\n            if(wills[msg.sender].beneficiariesList[i]==_bene){ \r\n                wills[msg.sender].beneficiariesList[i] = address(0);\r\n            }\r\n        }\r\n\r\n        lock =0;\r\n    }\r\n    \r\n    function get_inheritance(address _owner) public view returns(uint _amount){\r\n        return wills[_owner].beneficiaries[msg.sender] * 1 ether;\r\n\r\n    }\r\n\r\n    function claim_money(address _owner) public payable ownerDied(_owner){\r\n        require(lock==0,\"someone is using this\");\r\n        lock = 1;\r\n        (bool success, ) = msg.sender.call.value(wills[_owner].beneficiaries[msg.sender] * 1 ether)(\"\");\r\n        require(success,\"failed to pay\");\r\n        wills[_owner].beneficiaries[msg.sender] = 0;\r\n        lock = 0;\r\n    }\r\n    function claim_money_pass(address _owner, uint _pass) public payable{\r\n        require(lock==0,\"someone is using this\");\r\n        //check = keccak256(abi.encodePacked(_pass));\r\n        require(keccak256(abi.encodePacked(_pass)) == wills[_owner].secret,\"invalid password\");\r\n        lock = 1;\r\n        (bool success, ) = msg.sender.call.value(wills[_owner].beneficiaries[msg.sender] * 1 ether)(\"\");\r\n        require(success,\"failed to pay\");\r\n        wills[_owner].beneficiaries[msg.sender] = 0;\r\n        lock = 0;\r\n    }\r\n    \r\n    function still_alive() public willOwners  payable {\r\n        wills[msg.sender].expiry += 4;\r\n    }\r\n    function execute(address _owner) public payable returns (uint){\r\n        require(msg.sender == wills[_owner].executor,\"you got no power\");\r\n        wills[_owner].expiry = block.number;\r\n        return wills[_owner].expiry;\r\n    }\r\n    function gethash(uint ran)  public pure returns(bytes32){\r\n        return(keccak256(abi.encodePacked(ran)));\r\n    }\r\n\r\n    /*function execute(address _owner) public payable{\r\n        require(msg.sender == wills[_owner].executor,\"you got no power\");\r\n        require(lock==0,\"someone is using this\");\r\n        lock = 1;\r\n        for (uint i = 0; i<wills[_owner].count; i++){\r\n            address curr = wills[_owner].beneficiariesList[i];\r\n            curr.transfer(wills[_owner].beneficiaries[curr] * 1 ether);\r\n            wills[_owner].beneficiaries[msg.sender] = 0;\r\n            }\r\n        lock = 0;\r\n    }*/\r\n    \r\n\r\n\r\n    function() external payable{\r\n    }\r\n\r\n}",
  "sourcePath": "C:\\Users\\Student-TeoYongQuan\\Desktop\\Archive\\Blockchain\\project\\contracts\\Will_maker.sol",
  "compiler": {
    "name": "solc",
    "version": "0.5.16+commit.9c3226ce.Emscripten.clang"
  },
  "schemaVersion": "3.1.0",
  "updatedAt": "2020-04-30T07:00:01.470Z",
  "networkType": "ethereum",
  "devdoc": {
    "methods": {}
  },
  "userdoc": {
    "methods": {}
  }
}