{
  "contractName": "Will_maker",
  "abi": [
    {
      "inputs": [],
      "payable": true,
      "stateMutability": "payable",
      "type": "constructor"
    },
    {
      "anonymous": false,
      "inputs": [
        {
          "indexed": false,
          "internalType": "address",
          "name": "_owner",
          "type": "address"
        },
        {
          "indexed": false,
          "internalType": "address[]",
          "name": "_bene",
          "type": "address[]"
        },
        {
          "indexed": false,
          "internalType": "uint256[]",
          "name": "_values",
          "type": "uint256[]"
        }
      ],
      "name": "created_will",
      "type": "event"
    },
    {
      "payable": true,
      "stateMutability": "payable",
      "type": "fallback"
    },
    {
      "constant": true,
      "inputs": [],
      "name": "deployed",
      "outputs": [
        {
          "internalType": "uint256",
          "name": "",
          "type": "uint256"
        }
      ],
      "payable": false,
      "stateMutability": "view",
      "type": "function"
    },
    {
      "constant": true,
      "inputs": [
        {
          "internalType": "address",
          "name": "",
          "type": "address"
        }
      ],
      "name": "wills",
      "outputs": [
        {
          "internalType": "address",
          "name": "executor",
          "type": "address"
        },
        {
          "internalType": "bytes32",
          "name": "secret",
          "type": "bytes32"
        },
        {
          "internalType": "uint256",
          "name": "count",
          "type": "uint256"
        },
        {
          "internalType": "uint256",
          "name": "expiry",
          "type": "uint256"
        }
      ],
      "payable": false,
      "stateMutability": "view",
      "type": "function"
    },
    {
      "constant": false,
      "inputs": [
        {
          "internalType": "address",
          "name": "_exe",
          "type": "address"
        },
        {
          "internalType": "address[]",
          "name": "_beneficiaries",
          "type": "address[]"
        },
        {
          "internalType": "uint256[]",
          "name": "_values",
          "type": "uint256[]"
        },
        {
          "internalType": "bytes32",
          "name": "_sec",
          "type": "bytes32"
        }
      ],
      "name": "create_will",
      "outputs": [],
      "payable": true,
      "stateMutability": "payable",
      "type": "function"
    },
    {
      "constant": true,
      "inputs": [],
      "name": "get_beneficiaries",
      "outputs": [
        {
          "internalType": "address[]",
          "name": "",
          "type": "address[]"
        }
      ],
      "payable": false,
      "stateMutability": "view",
      "type": "function"
    },
    {
      "constant": false,
      "inputs": [
        {
          "internalType": "address[]",
          "name": "_benes",
          "type": "address[]"
        },
        {
          "internalType": "uint256[]",
          "name": "_values",
          "type": "uint256[]"
        }
      ],
      "name": "add_beneficiaries",
      "outputs": [],
      "payable": true,
      "stateMutability": "payable",
      "type": "function"
    },
    {
      "constant": true,
      "inputs": [
        {
          "internalType": "address",
          "name": "_owner",
          "type": "address"
        }
      ],
      "name": "get_inheritance",
      "outputs": [
        {
          "internalType": "uint256",
          "name": "_amount",
          "type": "uint256"
        }
      ],
      "payable": false,
      "stateMutability": "view",
      "type": "function"
    },
    {
      "constant": false,
      "inputs": [],
      "name": "still_alive",
      "outputs": [],
      "payable": true,
      "stateMutability": "payable",
      "type": "function"
    },
    {
      "constant": false,
      "inputs": [
        {
          "internalType": "address",
          "name": "_owner",
          "type": "address"
        }
      ],
      "name": "claim_money",
      "outputs": [],
      "payable": true,
      "stateMutability": "payable",
      "type": "function"
    },
    {
      "constant": false,
      "inputs": [
        {
          "internalType": "address",
          "name": "_owner",
          "type": "address"
        },
        {
          "internalType": "uint256",
          "name": "_pass",
          "type": "uint256"
        }
      ],
      "name": "claim_money_pass",
      "outputs": [],
      "payable": true,
      "stateMutability": "payable",
      "type": "function"
    },
    {
      "constant": false,
      "inputs": [
        {
          "internalType": "address",
          "name": "_owner",
          "type": "address"
        }
      ],
      "name": "execute",
      "outputs": [
        {
          "internalType": "uint256",
          "name": "",
          "type": "uint256"
        }
      ],
      "payable": true,
      "stateMutability": "payable",
      "type": "function"
    },
    {
      "constant": true,
      "inputs": [
        {
          "internalType": "uint256",
          "name": "ran",
          "type": "uint256"
        }
      ],
      "name": "gethash",
      "outputs": [
        {
          "internalType": "bytes32",
          "name": "",
          "type": "bytes32"
        }
      ],
      "payable": false,
      "stateMutability": "pure",
      "type": "function"
    }
  ],
  "bytecode": "0x60806040526001600055611849806100186000396000f3fe60806040526004361061009c5760003560e01c8063a4cb92fa11610064578063a4cb92fa14610215578063bc4e9e10146102bb578063c127b30314610309578063e612204f14610455578063f905c15a146105cb578063fdb9da93146105f65761009c565b80632d0b3f6c1461009e5780633adb6a2a146100e25780633d58225a146101475780634b64e4921461015157806365965308146101a9575b005b6100e0600480360360208110156100b457600080fd5b81019080803573ffffffffffffffffffffffffffffffffffffffff169060200190929190505050610645565b005b3480156100ee57600080fd5b506101316004803603602081101561010557600080fd5b81019080803573ffffffffffffffffffffffffffffffffffffffff1690602001909291905050506108c1565b6040518082815260200191505060405180910390f35b61014f610954565b005b6101936004803603602081101561016757600080fd5b81019080803573ffffffffffffffffffffffffffffffffffffffff169060200190929190505050610a60565b6040518082815260200191505060405180910390f35b3480156101b557600080fd5b506101be610bf6565b6040518080602001828103825283818151815260200191508051906020019060200280838360005b838110156102015780820151818401526020810190506101e6565b505050509050019250505060405180910390f35b34801561022157600080fd5b506102646004803603602081101561023857600080fd5b81019080803573ffffffffffffffffffffffffffffffffffffffff169060200190929190505050610d8c565b604051808573ffffffffffffffffffffffffffffffffffffffff1673ffffffffffffffffffffffffffffffffffffffff16815260200184815260200183815260200182815260200194505050505060405180910390f35b610307600480360360408110156102d157600080fd5b81019080803573ffffffffffffffffffffffffffffffffffffffff16906020019092919080359060200190929190505050610ddc565b005b6104536004803603604081101561031f57600080fd5b810190808035906020019064010000000081111561033c57600080fd5b82018360208201111561034e57600080fd5b8035906020019184602083028401116401000000008311171561037057600080fd5b919080806020026020016040519081016040528093929190818152602001838360200280828437600081840152601f19601f820116905080830192505050505050509192919290803590602001906401000000008111156103d057600080fd5b8201836020820111156103e257600080fd5b8035906020019184602083028401116401000000008311171561040457600080fd5b919080806020026020016040519081016040528093929190818152602001838360200280828437600081840152601f19601f82011690508083019250505050505050919291929050505061109a565b005b6105c96004803603608081101561046b57600080fd5b81019080803573ffffffffffffffffffffffffffffffffffffffff169060200190929190803590602001906401000000008111156104a857600080fd5b8201836020820111156104ba57600080fd5b803590602001918460208302840111640100000000831117156104dc57600080fd5b919080806020026020016040519081016040528093929190818152602001838360200280828437600081840152601f19601f8201169050808301925050505050505091929192908035906020019064010000000081111561053c57600080fd5b82018360208201111561054e57600080fd5b8035906020019184602083028401116401000000008311171561057057600080fd5b919080806020026020016040519081016040528093929190818152602001838360200280828437600081840152601f19601f82011690508083019250505050505050919291929080359060200190929190505050611356565b005b3480156105d757600080fd5b506105e06117a6565b6040518082815260200191505060405180910390f35b34801561060257600080fd5b5061062f6004803603602081101561061957600080fd5b81019080803590602001909291905050506117ac565b6040518082815260200191505060405180910390f35b80600360008273ffffffffffffffffffffffffffffffffffffffff1673ffffffffffffffffffffffffffffffffffffffff1681526020019081526020016000206003015443116106e0576040517f08c379a00000000000000000000000000000000000000000000000000000000081526004018080602001828103825260388152602001806117dd6038913960400191505060405180910390fd5b600060025414610758576040517f08c379a00000000000000000000000000000000000000000000000000000000081526004018080602001828103825260158152602001807f736f6d656f6e65206973207573696e672074686973000000000000000000000081525060200191505060405180910390fd5b60016002819055503373ffffffffffffffffffffffffffffffffffffffff166108fc670de0b6b3a7640000600360008673ffffffffffffffffffffffffffffffffffffffff1673ffffffffffffffffffffffffffffffffffffffff16815260200190815260200160002060050160003373ffffffffffffffffffffffffffffffffffffffff1673ffffffffffffffffffffffffffffffffffffffff16815260200190815260200160002054029081150290604051600060405180830381858888f1935050505015801561082f573d6000803e3d6000fd5b506000600360008473ffffffffffffffffffffffffffffffffffffffff1673ffffffffffffffffffffffffffffffffffffffff16815260200190815260200160002060050160003373ffffffffffffffffffffffffffffffffffffffff1673ffffffffffffffffffffffffffffffffffffffff1681526020019081526020016000208190555060006002819055505050565b6000670de0b6b3a7640000600360008473ffffffffffffffffffffffffffffffffffffffff1673ffffffffffffffffffffffffffffffffffffffff16815260200190815260200160002060050160003373ffffffffffffffffffffffffffffffffffffffff1673ffffffffffffffffffffffffffffffffffffffff16815260200190815260200160002054029050919050565b6000600360003373ffffffffffffffffffffffffffffffffffffffff1673ffffffffffffffffffffffffffffffffffffffff168152602001908152602001600020600301541415610a0d576040517f08c379a00000000000000000000000000000000000000000000000000000000081526004018080602001828103825260168152602001807f6e6f2077696c6c20746f2061646a75737420686572650000000000000000000081525060200191505060405180910390fd5b6004600360003373ffffffffffffffffffffffffffffffffffffffff1673ffffffffffffffffffffffffffffffffffffffff16815260200190815260200160002060030160008282540192505081905550565b6000600360008373ffffffffffffffffffffffffffffffffffffffff1673ffffffffffffffffffffffffffffffffffffffff16815260200190815260200160002060000160009054906101000a900473ffffffffffffffffffffffffffffffffffffffff1673ffffffffffffffffffffffffffffffffffffffff163373ffffffffffffffffffffffffffffffffffffffff1614610b65576040517f08c379a00000000000000000000000000000000000000000000000000000000081526004018080602001828103825260108152602001807f796f7520676f74206e6f20706f7765720000000000000000000000000000000081525060200191505060405180910390fd5b43600360008473ffffffffffffffffffffffffffffffffffffffff1673ffffffffffffffffffffffffffffffffffffffff16815260200190815260200160002060030181905550600360008373ffffffffffffffffffffffffffffffffffffffff1673ffffffffffffffffffffffffffffffffffffffff168152602001908152602001600020600301549050919050565b606080600360003373ffffffffffffffffffffffffffffffffffffffff1673ffffffffffffffffffffffffffffffffffffffff16815260200190815260200160002060020154604051908082528060200260200182016040528015610c6a5781602001602082028038833980820191505090505b50905060008090505b600360003373ffffffffffffffffffffffffffffffffffffffff1673ffffffffffffffffffffffffffffffffffffffff16815260200190815260200160002060020154811015610d8457600360003373ffffffffffffffffffffffffffffffffffffffff1673ffffffffffffffffffffffffffffffffffffffff168152602001908152602001600020600401600082815260200190815260200160002060009054906101000a900473ffffffffffffffffffffffffffffffffffffffff16828281518110610d3d57fe5b602002602001019073ffffffffffffffffffffffffffffffffffffffff16908173ffffffffffffffffffffffffffffffffffffffff16815250508080600101915050610c73565b508091505090565b60036020528060005260406000206000915090508060000160009054906101000a900473ffffffffffffffffffffffffffffffffffffffff16908060010154908060020154908060030154905084565b600060025414610e54576040517f08c379a00000000000000000000000000000000000000000000000000000000081526004018080602001828103825260158152602001807f736f6d656f6e65206973207573696e672074686973000000000000000000000081525060200191505060405180910390fd5b600360008373ffffffffffffffffffffffffffffffffffffffff1673ffffffffffffffffffffffffffffffffffffffff1681526020019081526020016000206001015481604051602001808281526020019150506040516020818303038152906040528051906020012014610f31576040517f08c379a00000000000000000000000000000000000000000000000000000000081526004018080602001828103825260108152602001807f696e76616c69642070617373776f72640000000000000000000000000000000081525060200191505060405180910390fd5b60016002819055503373ffffffffffffffffffffffffffffffffffffffff166108fc670de0b6b3a7640000600360008673ffffffffffffffffffffffffffffffffffffffff1673ffffffffffffffffffffffffffffffffffffffff16815260200190815260200160002060050160003373ffffffffffffffffffffffffffffffffffffffff1673ffffffffffffffffffffffffffffffffffffffff16815260200190815260200160002054029081150290604051600060405180830381858888f19350505050158015611008573d6000803e3d6000fd5b506000600360008473ffffffffffffffffffffffffffffffffffffffff1673ffffffffffffffffffffffffffffffffffffffff16815260200190815260200160002060050160003373ffffffffffffffffffffffffffffffffffffffff1673ffffffffffffffffffffffffffffffffffffffff1681526020019081526020016000208190555060006002819055505050565b6000600360003373ffffffffffffffffffffffffffffffffffffffff1673ffffffffffffffffffffffffffffffffffffffff168152602001908152602001600020600301541415611153576040517f08c379a00000000000000000000000000000000000000000000000000000000081526004018080602001828103825260168152602001807f6e6f2077696c6c20746f2061646a75737420686572650000000000000000000081525060200191505060405180910390fd5b60008090505b82518110156113515782818151811061116e57fe5b6020026020010151600360003373ffffffffffffffffffffffffffffffffffffffff1673ffffffffffffffffffffffffffffffffffffffff1681526020019081526020016000206004016000600360003373ffffffffffffffffffffffffffffffffffffffff1673ffffffffffffffffffffffffffffffffffffffff16815260200190815260200160002060020154815260200190815260200160002060006101000a81548173ffffffffffffffffffffffffffffffffffffffff021916908373ffffffffffffffffffffffffffffffffffffffff16021790555081818151811061125557fe5b6020026020010151600360003373ffffffffffffffffffffffffffffffffffffffff1673ffffffffffffffffffffffffffffffffffffffff16815260200190815260200160002060050160008584815181106112ad57fe5b602002602001015173ffffffffffffffffffffffffffffffffffffffff1673ffffffffffffffffffffffffffffffffffffffff168152602001908152602001600020819055506001600360003373ffffffffffffffffffffffffffffffffffffffff1673ffffffffffffffffffffffffffffffffffffffff168152602001908152602001600020600201600082825401925050819055508080600101915050611159565b505050565b81600080600090505b825181101561138d5782818151811061137457fe5b602002602001015182019150808060010191505061135f565b5034670de0b6b3a764000082021461140d576040517f08c379a00000000000000000000000000000000000000000000000000000000081526004018080602001828103825260188152602001807f76616c756520616e642073756d20646f6e74206d61746368000000000000000081525060200191505060405180910390fd5b33600160006101000a81548173ffffffffffffffffffffffffffffffffffffffff021916908373ffffffffffffffffffffffffffffffffffffffff1602179055506000600360003373ffffffffffffffffffffffffffffffffffffffff1673ffffffffffffffffffffffffffffffffffffffff1681526020019081526020016000209050868160000160006101000a81548173ffffffffffffffffffffffffffffffffffffffff021916908373ffffffffffffffffffffffffffffffffffffffff1602179055508381600101819055508551816002018190555043816003018190555060008090505b86518110156115df5785818151811061150b57fe5b602002602001015182600501600089848151811061152557fe5b602002602001015173ffffffffffffffffffffffffffffffffffffffff1673ffffffffffffffffffffffffffffffffffffffff1681526020019081526020016000208190555086818151811061157757fe5b602002602001015182600401600083815260200190815260200160002060006101000a81548173ffffffffffffffffffffffffffffffffffffffff021916908373ffffffffffffffffffffffffffffffffffffffff16021790555080806001019150506114f6565b5080600360003373ffffffffffffffffffffffffffffffffffffffff1673ffffffffffffffffffffffffffffffffffffffff1681526020019081526020016000206000820160009054906101000a900473ffffffffffffffffffffffffffffffffffffffff168160000160006101000a81548173ffffffffffffffffffffffffffffffffffffffff021916908373ffffffffffffffffffffffffffffffffffffffff1602179055506001820154816001015560028201548160020155600382015481600301559050507f5c91d85571873902f35fa3c27e31ed2878628ca00139817be97b71529e896e45338787604051808473ffffffffffffffffffffffffffffffffffffffff1673ffffffffffffffffffffffffffffffffffffffff1681526020018060200180602001838103835285818151815260200191508051906020019060200280838360005b8381101561174557808201518184015260208101905061172a565b50505050905001838103825284818151815260200191508051906020019060200280838360005b8381101561178757808201518184015260208101905061176c565b505050509050019550505050505060405180910390a150505050505050565b60005481565b6000816040516020018082815260200191505060405160208183030381529060405280519060200120905091905056fe77696c6c206f776e6572206973207374696c6c20616c6976652c206f72206e6f7420656e6f7567682074696d652068617320706173736564a265627a7a723158208c7a3426d5278a2475d03de342bc884511a20e34b6007e5818b4d2fb14f5c2d564736f6c63430005100032",
  "source": "pragma solidity >=0.4.21 <0.7.0;\r\n\r\n\r\ncontract Will_maker {\r\n    //address[] wills;\r\n    //address owner;\r\n    //uint256 give_away;\r\n    //bool alive;\r\n    //bytes32 secret;\r\n    //address executer;\r\n    //bytes32 public check;\r\n    uint public deployed = 1;\r\n    address owners;\r\n    uint lock;\r\n    constructor() public payable {\r\n\r\n    }\r\n    modifier onlyBeneficiaries(address _owner){\r\n        require(wills[_owner].beneficiaries[msg.sender] != 0,\"you do not have an inheritance here\");\r\n        _;\r\n    }\r\n\r\n    modifier willOwners(){\r\n        require(wills[msg.sender].expiry != 0,\"no will to adjust here\");\r\n        _;\r\n    }\r\n    modifier ownerDied(address _owner){\r\n        require(block.number > wills[_owner].expiry,\"will owner is still alive, or not enough time has passed\");\r\n        _;\r\n    }\r\n\r\n    modifier enoughMoney(uint[] memory _values){\r\n        uint sum;\r\n        for (uint j = 0; j < _values.length; j++){\r\n            sum = sum + _values[j];\r\n        }\r\n        require(sum*1 ether == msg.value,\"value and sum dont match\");\r\n        _;\r\n    }\r\n    struct Will{\r\n        address executor;\r\n        //uint[] values;\r\n\r\n        bytes32 secret;\r\n        uint count;\r\n        uint256 expiry;\r\n\r\n        //address[] beneficiaries;\r\n        //uint[] values;\r\n        mapping(uint => address) beneficiariesList;\r\n        mapping(address  => uint) beneficiaries;\r\n    }\r\n    event created_will(\r\n        address _owner,\r\n        address[] _bene,\r\n        uint[] _values\r\n    );\r\n    mapping(address => Will) public wills;\r\n    function create_will(address _exe, address[] memory _beneficiaries,uint[] memory _values,bytes32 _sec) enoughMoney(_values)  public payable{\r\n        // create the struct\r\n        owners = msg.sender;\r\n        Will storage w = wills[msg.sender];\r\n        w.executor = _exe;\r\n        w.secret = _sec;\r\n        w.count = _beneficiaries.length;\r\n        //w.beneficiaries = _beneficiaries;\r\n        //w.values = _values;\r\n        w.expiry = block.number;\r\n        for (uint i = 0; i < _beneficiaries.length; i++ ){\r\n            w.beneficiaries[_beneficiaries[i]] = _values[i];\r\n            w.beneficiariesList[i] = _beneficiaries[i];\r\n        }\r\n        wills[msg.sender] = w;\r\n        emit created_will(msg.sender,_beneficiaries,_values);\r\n    }\r\n    function get_beneficiaries() public view returns(address[] memory) {\r\n        address[] memory out = new address[](wills[msg.sender].count);\r\n        for (uint i = 0; i < wills[msg.sender].count; i++){\r\n            out[i] = wills[msg.sender].beneficiariesList[i];\r\n        }\r\n        return out;\r\n        //return wills[msg.sender].beneficiaries;\r\n    }\r\n    function add_beneficiaries(address[] memory _benes,uint[] memory _values) public payable willOwners(){\r\n       for (uint i = 0;i<_benes.length;i++){\r\n           wills[msg.sender].beneficiariesList[wills[msg.sender].count] = _benes[i];\r\n           wills[msg.sender].beneficiaries[_benes[i]] = _values[i];\r\n           wills[msg.sender].count += 1;\r\n       }\r\n    }\r\n\r\n    function get_inheritance(address _owner) public view returns(uint _amount){\r\n        return wills[_owner].beneficiaries[msg.sender] * 1 ether;\r\n        /*for (uint i = 0; i<wills[_owner].count; i++){\r\n            if(wills[_owner].beneficiaries[i] == msg.sender){\r\n                return wills[_owner].values[i];\r\n            }\r\n        }*/\r\n    }\r\n\r\n    function still_alive() public willOwners  payable {\r\n        wills[msg.sender].expiry += 4;\r\n    }\r\n\r\n    function claim_money(address _owner) public payable ownerDied(_owner){\r\n        require(lock==0,\"someone is using this\");\r\n        lock = 1;\r\n        msg.sender.transfer(wills[_owner].beneficiaries[msg.sender] * 1 ether);\r\n        wills[_owner].beneficiaries[msg.sender] = 0;\r\n        lock = 0;\r\n    }\r\n    function claim_money_pass(address _owner, uint _pass) public payable{\r\n        require(lock==0,\"someone is using this\");\r\n        //check = keccak256(abi.encodePacked(_pass));\r\n        require(keccak256(abi.encodePacked(_pass)) == wills[_owner].secret,\"invalid password\");\r\n        lock = 1;\r\n        msg.sender.transfer(wills[_owner].beneficiaries[msg.sender] * 1 ether);\r\n        wills[_owner].beneficiaries[msg.sender] = 0;\r\n        lock = 0;\r\n    }\r\n    function execute(address _owner) public payable returns (uint){\r\n        require(msg.sender == wills[_owner].executor,\"you got no power\");\r\n        wills[_owner].expiry = block.number;\r\n        return wills[_owner].expiry;\r\n    }\r\n    /*function execute(address _owner) public payable{\r\n        require(msg.sender == wills[_owner].executor,\"you got no power\");\r\n        require(lock==0,\"someone is using this\");\r\n        lock = 1;\r\n        for (uint i = 0; i<wills[_owner].count; i++){\r\n            address curr = wills[_owner].beneficiariesList[i];\r\n            curr.transfer(wills[_owner].beneficiaries[curr] * 1 ether);\r\n            wills[_owner].beneficiaries[msg.sender] = 0;\r\n            }\r\n        lock = 0;\r\n    }*/\r\n    function gethash(uint ran)  public pure returns(bytes32){\r\n        return(keccak256(abi.encodePacked(ran)));\r\n    }\r\n\r\n\r\n    function() external payable{\r\n    }\r\n\r\n}",
  "sourcePath": "C:\\Users\\Student-TeoYongQuan\\Desktop\\Archive\\Blockchain\\project\\contracts\\Will_maker.sol",
  "compiler": {
    "name": "solc",
    "version": "0.5.16+commit.9c3226ce.Emscripten.clang"
  },
  "schemaVersion": "3.1.0",
  "updatedAt": "2020-04-28T10:49:34.864Z",
  "networkType": "ethereum",
  "devdoc": {
    "methods": {}
  },
  "userdoc": {
    "methods": {}
  }
}