{
  "contractName": "Will_maker",
  "abi": [
    {
      "inputs": [],
      "payable": true,
      "stateMutability": "payable",
      "type": "constructor"
    },
    {
      "anonymous": false,
      "inputs": [
        {
          "indexed": false,
          "internalType": "address",
          "name": "_owner",
          "type": "address"
        },
        {
          "indexed": false,
          "internalType": "address[]",
          "name": "_bene",
          "type": "address[]"
        },
        {
          "indexed": false,
          "internalType": "uint256[]",
          "name": "_values",
          "type": "uint256[]"
        }
      ],
      "name": "created_will",
      "type": "event"
    },
    {
      "payable": true,
      "stateMutability": "payable",
      "type": "fallback"
    },
    {
      "constant": true,
      "inputs": [],
      "name": "deployed",
      "outputs": [
        {
          "internalType": "uint256",
          "name": "",
          "type": "uint256"
        }
      ],
      "payable": false,
      "stateMutability": "view",
      "type": "function"
    },
    {
      "constant": true,
      "inputs": [
        {
          "internalType": "address",
          "name": "",
          "type": "address"
        }
      ],
      "name": "wills",
      "outputs": [
        {
          "internalType": "address",
          "name": "executor",
          "type": "address"
        },
        {
          "internalType": "bytes32",
          "name": "secret",
          "type": "bytes32"
        },
        {
          "internalType": "uint256",
          "name": "count",
          "type": "uint256"
        },
        {
          "internalType": "uint256",
          "name": "expiry",
          "type": "uint256"
        }
      ],
      "payable": false,
      "stateMutability": "view",
      "type": "function"
    },
    {
      "constant": false,
      "inputs": [
        {
          "internalType": "address",
          "name": "_exe",
          "type": "address"
        },
        {
          "internalType": "address[]",
          "name": "_beneficiaries",
          "type": "address[]"
        },
        {
          "internalType": "uint256[]",
          "name": "_values",
          "type": "uint256[]"
        },
        {
          "internalType": "bytes32",
          "name": "_sec",
          "type": "bytes32"
        }
      ],
      "name": "create_will",
      "outputs": [],
      "payable": true,
      "stateMutability": "payable",
      "type": "function"
    },
    {
      "constant": true,
      "inputs": [],
      "name": "get_beneficiaries",
      "outputs": [
        {
          "internalType": "address[]",
          "name": "",
          "type": "address[]"
        }
      ],
      "payable": false,
      "stateMutability": "view",
      "type": "function"
    },
    {
      "constant": false,
      "inputs": [
        {
          "internalType": "address[]",
          "name": "_benes",
          "type": "address[]"
        },
        {
          "internalType": "uint256[]",
          "name": "_values",
          "type": "uint256[]"
        }
      ],
      "name": "add_beneficiaries",
      "outputs": [],
      "payable": true,
      "stateMutability": "payable",
      "type": "function"
    },
    {
      "constant": true,
      "inputs": [
        {
          "internalType": "address",
          "name": "_owner",
          "type": "address"
        }
      ],
      "name": "get_inheritance",
      "outputs": [
        {
          "internalType": "uint256",
          "name": "_amount",
          "type": "uint256"
        }
      ],
      "payable": false,
      "stateMutability": "view",
      "type": "function"
    },
    {
      "constant": false,
      "inputs": [],
      "name": "still_alive",
      "outputs": [],
      "payable": true,
      "stateMutability": "payable",
      "type": "function"
    },
    {
      "constant": false,
      "inputs": [
        {
          "internalType": "address",
          "name": "_owner",
          "type": "address"
        },
        {
          "internalType": "uint256",
          "name": "_pass",
          "type": "uint256"
        }
      ],
      "name": "claim_money",
      "outputs": [],
      "payable": true,
      "stateMutability": "payable",
      "type": "function"
    },
    {
      "constant": false,
      "inputs": [
        {
          "internalType": "address",
          "name": "_owner",
          "type": "address"
        }
      ],
      "name": "claim_money",
      "outputs": [],
      "payable": true,
      "stateMutability": "payable",
      "type": "function"
    },
    {
      "constant": false,
      "inputs": [
        {
          "internalType": "address",
          "name": "_owner",
          "type": "address"
        }
      ],
      "name": "execute",
      "outputs": [],
      "payable": true,
      "stateMutability": "payable",
      "type": "function"
    },
    {
      "constant": true,
      "inputs": [
        {
          "internalType": "uint256",
          "name": "ran",
          "type": "uint256"
        }
      ],
      "name": "gethash",
      "outputs": [
        {
          "internalType": "bytes32",
          "name": "",
          "type": "bytes32"
        }
      ],
      "payable": false,
      "stateMutability": "pure",
      "type": "function"
    }
  ],
  "bytecode": "0x60806040526001600055611902806100186000396000f3fe60806040526004361061009c5760003560e01c8063659653081161006457806365965308146101e3578063a4cb92fa1461024f578063c127b303146102f5578063e612204f14610441578063f905c15a146105b7578063fdb9da93146105e25761009c565b8063199f6d5f1461009e5780632d0b3f6c146100ec5780633adb6a2a146101305780633d58225a146101955780634b64e4921461019f575b005b6100ea600480360360408110156100b457600080fd5b81019080803573ffffffffffffffffffffffffffffffffffffffff16906020019092919080359060200190929190505050610631565b005b61012e6004803603602081101561010257600080fd5b81019080803573ffffffffffffffffffffffffffffffffffffffff1690602001909291905050506108ef565b005b34801561013c57600080fd5b5061017f6004803603602081101561015357600080fd5b81019080803573ffffffffffffffffffffffffffffffffffffffff169060200190929190505050610acf565b6040518082815260200191505060405180910390f35b61019d610b58565b005b6101e1600480360360208110156101b557600080fd5b81019080803573ffffffffffffffffffffffffffffffffffffffff169060200190929190505050610c64565b005b3480156101ef57600080fd5b506101f8610fa5565b6040518080602001828103825283818151815260200191508051906020019060200280838360005b8381101561023b578082015181840152602081019050610220565b505050509050019250505060405180910390f35b34801561025b57600080fd5b5061029e6004803603602081101561027257600080fd5b81019080803573ffffffffffffffffffffffffffffffffffffffff16906020019092919050505061113b565b604051808573ffffffffffffffffffffffffffffffffffffffff1673ffffffffffffffffffffffffffffffffffffffff16815260200184815260200183815260200182815260200194505050505060405180910390f35b61043f6004803603604081101561030b57600080fd5b810190808035906020019064010000000081111561032857600080fd5b82018360208201111561033a57600080fd5b8035906020019184602083028401116401000000008311171561035c57600080fd5b919080806020026020016040519081016040528093929190818152602001838360200280828437600081840152601f19601f820116905080830192505050505050509192919290803590602001906401000000008111156103bc57600080fd5b8201836020820111156103ce57600080fd5b803590602001918460208302840111640100000000831117156103f057600080fd5b919080806020026020016040519081016040528093929190818152602001838360200280828437600081840152601f19601f82011690508083019250505050505050919291929050505061118b565b005b6105b56004803603608081101561045757600080fd5b81019080803573ffffffffffffffffffffffffffffffffffffffff1690602001909291908035906020019064010000000081111561049457600080fd5b8201836020820111156104a657600080fd5b803590602001918460208302840111640100000000831117156104c857600080fd5b919080806020026020016040519081016040528093929190818152602001838360200280828437600081840152601f19601f8201169050808301925050505050505091929192908035906020019064010000000081111561052857600080fd5b82018360208201111561053a57600080fd5b8035906020019184602083028401116401000000008311171561055c57600080fd5b919080806020026020016040519081016040528093929190818152602001838360200280828437600081840152601f19601f82011690508083019250505050505050919291929080359060200190929190505050611447565b005b3480156105c357600080fd5b506105cc611897565b6040518082815260200191505060405180910390f35b3480156105ee57600080fd5b5061061b6004803603602081101561060557600080fd5b810190808035906020019092919050505061189d565b6040518082815260200191505060405180910390f35b6000600254146106a9576040517f08c379a00000000000000000000000000000000000000000000000000000000081526004018080602001828103825260158152602001807f736f6d656f6e65206973207573696e672074686973000000000000000000000081525060200191505060405180910390fd5b600360008373ffffffffffffffffffffffffffffffffffffffff1673ffffffffffffffffffffffffffffffffffffffff1681526020019081526020016000206001015481604051602001808281526020019150506040516020818303038152906040528051906020012014610786576040517f08c379a00000000000000000000000000000000000000000000000000000000081526004018080602001828103825260108152602001807f696e76616c69642070617373776f72640000000000000000000000000000000081525060200191505060405180910390fd5b60016002819055503373ffffffffffffffffffffffffffffffffffffffff166108fc670de0b6b3a7640000600360008673ffffffffffffffffffffffffffffffffffffffff1673ffffffffffffffffffffffffffffffffffffffff16815260200190815260200160002060050160003373ffffffffffffffffffffffffffffffffffffffff1673ffffffffffffffffffffffffffffffffffffffff16815260200190815260200160002054029081150290604051600060405180830381858888f1935050505015801561085d573d6000803e3d6000fd5b506000600360008473ffffffffffffffffffffffffffffffffffffffff1673ffffffffffffffffffffffffffffffffffffffff16815260200190815260200160002060050160003373ffffffffffffffffffffffffffffffffffffffff1673ffffffffffffffffffffffffffffffffffffffff1681526020019081526020016000208190555060006002819055505050565b600060025414610967576040517f08c379a00000000000000000000000000000000000000000000000000000000081526004018080602001828103825260158152602001807f736f6d656f6e65206973207573696e672074686973000000000000000000000081525060200191505060405180910390fd5b60016002819055503373ffffffffffffffffffffffffffffffffffffffff166108fc670de0b6b3a7640000600360008573ffffffffffffffffffffffffffffffffffffffff1673ffffffffffffffffffffffffffffffffffffffff16815260200190815260200160002060050160003373ffffffffffffffffffffffffffffffffffffffff1673ffffffffffffffffffffffffffffffffffffffff16815260200190815260200160002054029081150290604051600060405180830381858888f19350505050158015610a3e573d6000803e3d6000fd5b506000600360008373ffffffffffffffffffffffffffffffffffffffff1673ffffffffffffffffffffffffffffffffffffffff16815260200190815260200160002060050160003373ffffffffffffffffffffffffffffffffffffffff1673ffffffffffffffffffffffffffffffffffffffff16815260200190815260200160002081905550600060028190555050565b6000600360008373ffffffffffffffffffffffffffffffffffffffff1673ffffffffffffffffffffffffffffffffffffffff16815260200190815260200160002060050160003373ffffffffffffffffffffffffffffffffffffffff1673ffffffffffffffffffffffffffffffffffffffff168152602001908152602001600020549050919050565b6000600360003373ffffffffffffffffffffffffffffffffffffffff1673ffffffffffffffffffffffffffffffffffffffff168152602001908152602001600020600301541415610c11576040517f08c379a00000000000000000000000000000000000000000000000000000000081526004018080602001828103825260168152602001807f6e6f2077696c6c20746f2061646a75737420686572650000000000000000000081525060200191505060405180910390fd5b6002600360003373ffffffffffffffffffffffffffffffffffffffff1673ffffffffffffffffffffffffffffffffffffffff16815260200190815260200160002060030160008282540192505081905550565b600360008273ffffffffffffffffffffffffffffffffffffffff1673ffffffffffffffffffffffffffffffffffffffff16815260200190815260200160002060000160009054906101000a900473ffffffffffffffffffffffffffffffffffffffff1673ffffffffffffffffffffffffffffffffffffffff163373ffffffffffffffffffffffffffffffffffffffff1614610d67576040517f08c379a00000000000000000000000000000000000000000000000000000000081526004018080602001828103825260108152602001807f796f7520676f74206e6f20706f7765720000000000000000000000000000000081525060200191505060405180910390fd5b600060025414610ddf576040517f08c379a00000000000000000000000000000000000000000000000000000000081526004018080602001828103825260158152602001807f736f6d656f6e65206973207573696e672074686973000000000000000000000081525060200191505060405180910390fd5b600160028190555060008090505b600360008373ffffffffffffffffffffffffffffffffffffffff1673ffffffffffffffffffffffffffffffffffffffff16815260200190815260200160002060020154811015610f99573373ffffffffffffffffffffffffffffffffffffffff166108fc670de0b6b3a7640000600360008673ffffffffffffffffffffffffffffffffffffffff1673ffffffffffffffffffffffffffffffffffffffff16815260200190815260200160002060050160003373ffffffffffffffffffffffffffffffffffffffff1673ffffffffffffffffffffffffffffffffffffffff16815260200190815260200160002054029081150290604051600060405180830381858888f19350505050158015610f06573d6000803e3d6000fd5b506000600360008473ffffffffffffffffffffffffffffffffffffffff1673ffffffffffffffffffffffffffffffffffffffff16815260200190815260200160002060050160003373ffffffffffffffffffffffffffffffffffffffff1673ffffffffffffffffffffffffffffffffffffffff168152602001908152602001600020819055508080600101915050610ded565b50600060028190555050565b606080600360003373ffffffffffffffffffffffffffffffffffffffff1673ffffffffffffffffffffffffffffffffffffffff168152602001908152602001600020600201546040519080825280602002602001820160405280156110195781602001602082028038833980820191505090505b50905060008090505b600360003373ffffffffffffffffffffffffffffffffffffffff1673ffffffffffffffffffffffffffffffffffffffff1681526020019081526020016000206002015481101561113357600360003373ffffffffffffffffffffffffffffffffffffffff1673ffffffffffffffffffffffffffffffffffffffff168152602001908152602001600020600401600082815260200190815260200160002060009054906101000a900473ffffffffffffffffffffffffffffffffffffffff168282815181106110ec57fe5b602002602001019073ffffffffffffffffffffffffffffffffffffffff16908173ffffffffffffffffffffffffffffffffffffffff16815250508080600101915050611022565b508091505090565b60036020528060005260406000206000915090508060000160009054906101000a900473ffffffffffffffffffffffffffffffffffffffff16908060010154908060020154908060030154905084565b6000600360003373ffffffffffffffffffffffffffffffffffffffff1673ffffffffffffffffffffffffffffffffffffffff168152602001908152602001600020600301541415611244576040517f08c379a00000000000000000000000000000000000000000000000000000000081526004018080602001828103825260168152602001807f6e6f2077696c6c20746f2061646a75737420686572650000000000000000000081525060200191505060405180910390fd5b60008090505b82518110156114425782818151811061125f57fe5b6020026020010151600360003373ffffffffffffffffffffffffffffffffffffffff1673ffffffffffffffffffffffffffffffffffffffff1681526020019081526020016000206004016000600360003373ffffffffffffffffffffffffffffffffffffffff1673ffffffffffffffffffffffffffffffffffffffff16815260200190815260200160002060020154815260200190815260200160002060006101000a81548173ffffffffffffffffffffffffffffffffffffffff021916908373ffffffffffffffffffffffffffffffffffffffff16021790555081818151811061134657fe5b6020026020010151600360003373ffffffffffffffffffffffffffffffffffffffff1673ffffffffffffffffffffffffffffffffffffffff168152602001908152602001600020600501600085848151811061139e57fe5b602002602001015173ffffffffffffffffffffffffffffffffffffffff1673ffffffffffffffffffffffffffffffffffffffff168152602001908152602001600020819055506001600360003373ffffffffffffffffffffffffffffffffffffffff1673ffffffffffffffffffffffffffffffffffffffff16815260200190815260200160002060020160008282540192505081905550808060010191505061124a565b505050565b81600080600090505b825181101561147e5782818151811061146557fe5b6020026020010151820191508080600101915050611450565b5034670de0b6b3a76400008202146114fe576040517f08c379a00000000000000000000000000000000000000000000000000000000081526004018080602001828103825260188152602001807f76616c756520616e642073756d20646f6e74206d61746368000000000000000081525060200191505060405180910390fd5b33600160006101000a81548173ffffffffffffffffffffffffffffffffffffffff021916908373ffffffffffffffffffffffffffffffffffffffff1602179055506000600360003373ffffffffffffffffffffffffffffffffffffffff1673ffffffffffffffffffffffffffffffffffffffff1681526020019081526020016000209050868160000160006101000a81548173ffffffffffffffffffffffffffffffffffffffff021916908373ffffffffffffffffffffffffffffffffffffffff1602179055508381600101819055508551816002018190555043816003018190555060008090505b86518110156116d0578581815181106115fc57fe5b602002602001015182600501600089848151811061161657fe5b602002602001015173ffffffffffffffffffffffffffffffffffffffff1673ffffffffffffffffffffffffffffffffffffffff1681526020019081526020016000208190555086818151811061166857fe5b602002602001015182600401600083815260200190815260200160002060006101000a81548173ffffffffffffffffffffffffffffffffffffffff021916908373ffffffffffffffffffffffffffffffffffffffff16021790555080806001019150506115e7565b5080600360003373ffffffffffffffffffffffffffffffffffffffff1673ffffffffffffffffffffffffffffffffffffffff1681526020019081526020016000206000820160009054906101000a900473ffffffffffffffffffffffffffffffffffffffff168160000160006101000a81548173ffffffffffffffffffffffffffffffffffffffff021916908373ffffffffffffffffffffffffffffffffffffffff1602179055506001820154816001015560028201548160020155600382015481600301559050507f5c91d85571873902f35fa3c27e31ed2878628ca00139817be97b71529e896e45338787604051808473ffffffffffffffffffffffffffffffffffffffff1673ffffffffffffffffffffffffffffffffffffffff1681526020018060200180602001838103835285818151815260200191508051906020019060200280838360005b8381101561183657808201518184015260208101905061181b565b50505050905001838103825284818151815260200191508051906020019060200280838360005b8381101561187857808201518184015260208101905061185d565b505050509050019550505050505060405180910390a150505050505050565b60005481565b6000816040516020018082815260200191505060405160208183030381529060405280519060200120905091905056fea265627a7a7231582005fd7ca9f6470be0af54ca48342201e9320465ea99503ee94341b4102b76107264736f6c63430005100032",
  "source": "pragma solidity >=0.4.21 <0.7.0;\r\n\r\n\r\ncontract Will_maker {\r\n    //address[] wills;\r\n    //address owner;\r\n    //uint256 give_away;\r\n    //bool alive;\r\n    //bytes32 secret;\r\n    //address executer;\r\n    uint public deployed = 1;\r\n    address owners;\r\n    uint lock;\r\n    constructor() public payable {\r\n\r\n    }\r\n    modifier onlyBeneficiaries(address _owner){\r\n        require(wills[_owner].beneficiaries[msg.sender] != 0,\"you do not have an inheritance here\");\r\n        _;\r\n    }\r\n\r\n    modifier willOwners(){\r\n        require(wills[msg.sender].expiry != 0,\"no will to adjust here\");\r\n        _;\r\n    }\r\n    modifier ownerDied(address _owner){\r\n        require(block.number > wills[_owner].expiry,\"will owner is still alive, or not enough time has passed\");\r\n        _;\r\n    }\r\n\r\n    modifier enoughMoney(uint[] memory _values){\r\n        uint sum;\r\n        for (uint j = 0; j < _values.length; j++){\r\n            sum = sum + _values[j];\r\n        }\r\n        require(sum*1 ether == msg.value,\"value and sum dont match\");\r\n        _;\r\n    }\r\n    struct Will{\r\n        address executor;\r\n        //uint[] values;\r\n\r\n        bytes32 secret;\r\n        uint count;\r\n        uint256 expiry;\r\n\r\n        //address[] beneficiaries;\r\n        //uint[] values;\r\n        mapping(uint => address) beneficiariesList;\r\n        mapping(address  => uint) beneficiaries;\r\n    }\r\n    event created_will(\r\n        address _owner,\r\n        address[] _bene,\r\n        uint[] _values\r\n    );\r\n    mapping(address => Will) public wills;\r\n    function create_will(address _exe, address[] memory _beneficiaries,uint[] memory _values,bytes32 _sec) enoughMoney(_values)  public payable{\r\n        // create the struct\r\n        owners = msg.sender;\r\n        Will storage w = wills[msg.sender];\r\n        w.executor = _exe;\r\n        w.secret = _sec;\r\n        w.count = _beneficiaries.length;\r\n        //w.beneficiaries = _beneficiaries;\r\n        //w.values = _values;\r\n        w.expiry = block.number;\r\n        for (uint i = 0; i < _beneficiaries.length; i++ ){\r\n            w.beneficiaries[_beneficiaries[i]] = _values[i];\r\n            w.beneficiariesList[i] = _beneficiaries[i];\r\n        }\r\n        wills[msg.sender] = w;\r\n        emit created_will(msg.sender,_beneficiaries,_values);\r\n    }\r\n    function get_beneficiaries() public view returns(address[] memory) {\r\n        address[] memory out = new address[](wills[msg.sender].count);\r\n        for (uint i = 0; i < wills[msg.sender].count; i++){\r\n            out[i] = wills[msg.sender].beneficiariesList[i];\r\n        }\r\n        return out;\r\n        //return wills[msg.sender].beneficiaries;\r\n    }\r\n    function add_beneficiaries(address[] memory _benes,uint[] memory _values) public payable willOwners(){\r\n       for (uint i = 0;i<_benes.length;i++){\r\n           wills[msg.sender].beneficiariesList[wills[msg.sender].count] = _benes[i];\r\n           wills[msg.sender].beneficiaries[_benes[i]] = _values[i];\r\n           wills[msg.sender].count += 1;\r\n       }\r\n    }\r\n\r\n    function get_inheritance(address _owner) public view returns(uint _amount){\r\n        return wills[_owner].beneficiaries[msg.sender];\r\n        /*for (uint i = 0; i<wills[_owner].count; i++){\r\n            if(wills[_owner].beneficiaries[i] == msg.sender){\r\n                return wills[_owner].values[i];\r\n            }\r\n        }*/\r\n    }\r\n\r\n    function still_alive() public willOwners  payable {\r\n        wills[msg.sender].expiry += 2;\r\n    }\r\n\r\n    function claim_money(address _owner) public payable{\r\n        require(lock==0,\"someone is using this\");\r\n        lock = 1;\r\n        msg.sender.transfer(wills[_owner].beneficiaries[msg.sender] * 1 ether);\r\n        wills[_owner].beneficiaries[msg.sender] = 0;\r\n        lock = 0;\r\n    }\r\n    function claim_money(address _owner, uint _pass) public payable{\r\n        require(lock==0,\"someone is using this\");\r\n        require(keccak256(abi.encodePacked(_pass)) == wills[_owner].secret,\"invalid password\");\r\n        lock = 1;\r\n        msg.sender.transfer(wills[_owner].beneficiaries[msg.sender] * 1 ether);\r\n        wills[_owner].beneficiaries[msg.sender] = 0;\r\n        lock = 0;\r\n    }\r\n    function execute(address _owner) public payable{\r\n        require(msg.sender == wills[_owner].executor,\"you got no power\");\r\n        require(lock==0,\"someone is using this\");\r\n        lock = 1;\r\n        for (uint i = 0; i<wills[_owner].count; i++){\r\n            msg.sender.transfer(wills[_owner].beneficiaries[msg.sender] * 1 ether);\r\n            wills[_owner].beneficiaries[msg.sender] = 0;\r\n            }\r\n        lock = 0;\r\n    }\r\n    function gethash(uint ran)  public pure returns(bytes32){\r\n        return(keccak256(abi.encodePacked(ran)));\r\n    }\r\n\r\n\r\n    function() external payable{\r\n    }\r\n\r\n}",
  "sourcePath": "C:\\Users\\Student-TeoYongQuan\\Desktop\\Archive\\Blockchain\\project\\contracts\\Will_maker.sol",
  "compiler": {
    "name": "solc",
    "version": "0.5.16+commit.9c3226ce.Emscripten.clang"
  },
  "schemaVersion": "3.1.0",
  "updatedAt": "2020-04-27T17:24:40.067Z",
  "networkType": "ethereum",
  "devdoc": {
    "methods": {}
  },
  "userdoc": {
    "methods": {}
  }
}