{
  "contractName": "Will_maker",
  "abi": [
    {
      "inputs": [],
      "payable": true,
      "stateMutability": "payable",
      "type": "constructor"
    },
    {
      "constant": true,
      "inputs": [
        {
          "internalType": "address",
          "name": "",
          "type": "address"
        }
      ],
      "name": "wills",
      "outputs": [
        {
          "internalType": "address",
          "name": "executor",
          "type": "address"
        },
        {
          "internalType": "uint256",
          "name": "dead",
          "type": "uint256"
        },
        {
          "internalType": "uint256",
          "name": "secret",
          "type": "uint256"
        },
        {
          "internalType": "uint256",
          "name": "count",
          "type": "uint256"
        }
      ],
      "payable": false,
      "stateMutability": "view",
      "type": "function"
    },
    {
      "constant": false,
      "inputs": [
        {
          "internalType": "address",
          "name": "_exe",
          "type": "address"
        },
        {
          "internalType": "address[]",
          "name": "_beneficiaries",
          "type": "address[]"
        },
        {
          "internalType": "uint256[]",
          "name": "_values",
          "type": "uint256[]"
        },
        {
          "internalType": "uint256",
          "name": "_secret",
          "type": "uint256"
        }
      ],
      "name": "create_will",
      "outputs": [],
      "payable": true,
      "stateMutability": "payable",
      "type": "function"
    },
    {
      "constant": true,
      "inputs": [],
      "name": "get_beneficiaries",
      "outputs": [
        {
          "internalType": "address[]",
          "name": "",
          "type": "address[]"
        }
      ],
      "payable": false,
      "stateMutability": "view",
      "type": "function"
    },
    {
      "constant": true,
      "inputs": [
        {
          "internalType": "address",
          "name": "_owner",
          "type": "address"
        }
      ],
      "name": "get_inheritance",
      "outputs": [
        {
          "internalType": "uint256",
          "name": "_amount",
          "type": "uint256"
        }
      ],
      "payable": false,
      "stateMutability": "view",
      "type": "function"
    }
  ],
  "bytecode": "0x60806040526109a4806100136000396000f3fe60806040526004361061003f5760003560e01c80633adb6a2a1461004457806365965308146100a9578063a4cb92fa14610115578063b0d33a21146101bb575b600080fd5b34801561005057600080fd5b506100936004803603602081101561006757600080fd5b81019080803573ffffffffffffffffffffffffffffffffffffffff169060200190929190505050610331565b6040518082815260200191505060405180910390f35b3480156100b557600080fd5b506100be61049f565b6040518080602001828103825283818151815260200191508051906020019060200280838360005b838110156101015780820151818401526020810190506100e6565b505050509050019250505060405180910390f35b34801561012157600080fd5b506101646004803603602081101561013857600080fd5b81019080803573ffffffffffffffffffffffffffffffffffffffff16906020019092919050505061056c565b604051808573ffffffffffffffffffffffffffffffffffffffff1673ffffffffffffffffffffffffffffffffffffffff16815260200184815260200183815260200182815260200194505050505060405180910390f35b61032f600480360360808110156101d157600080fd5b81019080803573ffffffffffffffffffffffffffffffffffffffff1690602001909291908035906020019064010000000081111561020e57600080fd5b82018360208201111561022057600080fd5b8035906020019184602083028401116401000000008311171561024257600080fd5b919080806020026020016040519081016040528093929190818152602001838360200280828437600081840152601f19601f820116905080830192505050505050509192919290803590602001906401000000008111156102a257600080fd5b8201836020820111156102b457600080fd5b803590602001918460208302840111640100000000831117156102d657600080fd5b919080806020026020016040519081016040528093929190818152602001838360200280828437600081840152601f19601f820116905080830192505050505050509192919290803590602001909291905050506105bc565b005b600080600090505b6000808473ffffffffffffffffffffffffffffffffffffffff1673ffffffffffffffffffffffffffffffffffffffff16815260200190815260200160002060030154811015610498573373ffffffffffffffffffffffffffffffffffffffff166000808573ffffffffffffffffffffffffffffffffffffffff1673ffffffffffffffffffffffffffffffffffffffff16815260200190815260200160002060040182815481106103e557fe5b9060005260206000200160009054906101000a900473ffffffffffffffffffffffffffffffffffffffff1673ffffffffffffffffffffffffffffffffffffffff16141561048b576000808473ffffffffffffffffffffffffffffffffffffffff1673ffffffffffffffffffffffffffffffffffffffff168152602001908152602001600020600501818154811061047857fe5b906000526020600020015491505061049a565b8080600101915050610339565b505b919050565b60606000803373ffffffffffffffffffffffffffffffffffffffff1673ffffffffffffffffffffffffffffffffffffffff16815260200190815260200160002060040180548060200260200160405190810160405280929190818152602001828054801561056257602002820191906000526020600020905b8160009054906101000a900473ffffffffffffffffffffffffffffffffffffffff1673ffffffffffffffffffffffffffffffffffffffff1681526020019060010190808311610518575b5050505050905090565b60006020528060005260406000206000915090508060000160009054906101000a900473ffffffffffffffffffffffffffffffffffffffff16908060010154908060020154908060030154905084565b60008060003373ffffffffffffffffffffffffffffffffffffffff1673ffffffffffffffffffffffffffffffffffffffff1681526020019081526020016000209050848160000160006101000a81548173ffffffffffffffffffffffffffffffffffffffff021916908373ffffffffffffffffffffffffffffffffffffffff16021790555060008160010181905550818160020181905550835181600301819055508381600401908051906020019061067692919061078c565b508281600501908051906020019061068f929190610816565b50806000803373ffffffffffffffffffffffffffffffffffffffff1673ffffffffffffffffffffffffffffffffffffffff1681526020019081526020016000206000820160009054906101000a900473ffffffffffffffffffffffffffffffffffffffff168160000160006101000a81548173ffffffffffffffffffffffffffffffffffffffff021916908373ffffffffffffffffffffffffffffffffffffffff160217905550600182015481600101556002820154816002015560038201548160030155600482018160040190805461076a929190610863565b5060058201816005019080546107819291906108b5565b509050505050505050565b828054828255906000526020600020908101928215610805579160200282015b828111156108045782518260006101000a81548173ffffffffffffffffffffffffffffffffffffffff021916908373ffffffffffffffffffffffffffffffffffffffff160217905550916020019190600101906107ac565b5b5090506108129190610907565b5090565b828054828255906000526020600020908101928215610852579160200282015b82811115610851578251825591602001919060010190610836565b5b50905061085f919061094a565b5090565b8280548282559060005260206000209081019282156108a45760005260206000209182015b828111156108a3578254825591600101919060010190610888565b5b5090506108b19190610907565b5090565b8280548282559060005260206000209081019282156108f65760005260206000209182015b828111156108f55782548255916001019190600101906108da565b5b509050610903919061094a565b5090565b61094791905b8082111561094357600081816101000a81549073ffffffffffffffffffffffffffffffffffffffff02191690555060010161090d565b5090565b90565b61096c91905b80821115610968576000816000905550600101610950565b5090565b9056fea265627a7a723158202e618731dbf4978793194ef07422c04b1fc8f5f7e2cc03a76c51d9b6ae0fb32564736f6c63430005100032",
  "source": "pragma solidity >=0.4.21 <0.7.0;\r\n\r\n\r\ncontract Will_maker {\r\n    //address[] wills;\r\n    //address owner;\r\n    //uint256 give_away;\r\n    //bool alive;\r\n    //bytes32 secret;\r\n    //address executer;\r\n\r\n    constructor() public payable {\r\n\r\n    }\r\n    /*\r\n    modifier onlyOwner() {\r\n        require(msg.sender == owner, \"you do no have access to this\");\r\n        _;\r\n    }\r\n\r\n    modifier afterDeath() {\r\n        require(alive == false, \"owner not dead yet\");\r\n        _;\r\n    }\r\n\r\n    modifier onlyExecuter() {\r\n        require(msg.sender == executer,\"you do not have to power to do this\");\r\n        _;\r\n    }\r\n\r\n    modifier onlyBeneficiaries() {\r\n        require(inheritance[msg.sender] > 0, \"you do no have any thing to claim\");\r\n        _;\r\n    }*/\r\n    struct Will{\r\n        address executor;\r\n        //uint[] values;\r\n        uint dead;\r\n        uint secret;\r\n        uint count;\r\n        address[] beneficiaries;\r\n        uint[] values;\r\n        //mapping(address  => uint) beneficiaries;\r\n    }\r\n    mapping(address => Will) public wills;\r\n    function create_will(address _exe, address[] memory _beneficiaries,uint[] memory _values,uint _secret) public payable{\r\n        // create the struct\r\n        Will storage w = wills[msg.sender];\r\n        w.executor = _exe;\r\n        w.dead = 0;\r\n        w.secret = _secret;\r\n        w.count = _beneficiaries.length;\r\n        w.beneficiaries = _beneficiaries;\r\n        w.values = _values;\r\n        /*for (uint i = 0; i < beneficiaries.length; i++ ){\r\n            w.beneficiaries[beneficiaries[i]] = _values[i];\r\n        }*/\r\n        wills[msg.sender] = w;\r\n    }\r\n    function get_beneficiaries() public view returns(address[] memory) {\r\n        /*address [] memory out = new address[](wills[msg.sender].count);\r\n        for (uint i = 0; i< wills[msg.sender].count; i++){\r\n            out[i] = wills[msg.sender].beneficiaries[i];\r\n        }\r\n        return out;*/\r\n        return wills[msg.sender].beneficiaries;\r\n    }\r\n\r\n    function get_inheritance(address _owner) public view returns(uint _amount){\r\n        for (uint i = 0; i<wills[_owner].count; i++){\r\n            if(wills[_owner].beneficiaries[i] == msg.sender){\r\n                return wills[_owner].values[i];\r\n            }\r\n        }\r\n    }\r\n}",
  "sourcePath": "C:\\Users\\Student-TeoYongQuan\\Desktop\\Archive\\Blockchain\\project\\contracts\\Will_maker.sol",
  "compiler": {
    "name": "solc",
    "version": "0.5.16+commit.9c3226ce.Emscripten.clang"
  },
  "schemaVersion": "3.1.0",
  "updatedAt": "2020-04-24T11:18:05.521Z",
  "networkType": "ethereum",
  "devdoc": {
    "methods": {}
  },
  "userdoc": {
    "methods": {}
  }
}